:400000000080002011000000C50F0000C50F000080B500AF024A034B1B68136000F0DCFFBC760040FA460040010000000020004001000000002001400100000000480040EA
:400040000100000000480140010000000100000008000223000008760800032300001076080004230000287608000523000030760500062300002070050007230000307065
:4000800005000823000060700500FE23000070703000FE220000405100020B220000000080010C220000000A80010D220000000C00020E220000000E80010F220000001AA9
:4000C000800010220000004180001122000000438000FE2200000047070013230000105206001423000060520700152300007852080016230000285B4000172300000064F7
:400100002000FE2300007065080019230000005180001A230000000280001B230000800280001C230000000480001D230000800480001E230000000680001F2300008006FF
:4001400080002023000000088000212300008008800022230000001480002323000080148000242300000016800025230000801680002623000000188000272300008018B7
:400180001000282300001050100029230000005080002A230000004D80002B230000804D80002C230000004C80002D230000804C80002E230000804780002F2300000046BC
:4001C00080003023000080468000312300000045800032230000804580003323000000448000342300008044800035230000801B800036230000001580003723000080152E
:400200008000382300000019800039230000801980003A230000001780003B230000801780003C230000000980003D230000800980003E230000000780003F23000080074A
:40024000800040230000800B80004123000000058000422300008005800043230000800D800044230000000380004523000080038000462300000049800047230000804910
:400280008000482300000048800049230000804880004A230000804380004B230000004280004C230000804280004D230000804180004E23000000408000FE230000804083
:4002C00010B5054C237833B9044B13B10448AFF300800123237010BD5081FF1F000000003C2F0000084B10B51BB108490848AFF300800848036803B910BD074B002BFBD0CF
:40030000BDE81040184700BF000000005481FF1F3C2F0000C880FF1F0000000080B500AF274B1B78DBB203F00803002B0CD1254B00221A8001F05AFC034643F00103DBB2EA
:40034000184601F043FC0FE0002002F027FD03461AB21C4B1A8001F049FC034603F00E03DBB2184601F032FC174BB3F900309BB21946002002F032FD134BB3F90220114B74
:400380005A80114BB3F9003083EAE372A2EBE3720E4B1B689342B8BF13460C4A13600A4BB3F9023083EAE372A2EBE372084B1B689342B8BF1346064A136000BF80BD00BF6D
:4003C00084C70040A081FF1F9481FF1FB081FF1F9081FF1F80B500AF01F008FC034643F00303DBB2184601F0F1FB62B601F0B8FC00F0FEFE012000F08BFF0021002000F0EA
:4004000009FF9A4800F03EFF0021012000F002FF974800F037FF4FF47A7001F055FB012000F076FF0021002000F0F4FE914800F029FF0021012000F0EDFE8F4800F022FF60
:400440004FF4FA7001F040FB012000F061FF0021002000F0DFFE894800F014FF0021012000F0D8FE864800F00DFF864B00221A80844B00225A8000F01BFA02F00FF802F036
:40048000E7F802F04FF902F027FA02F09BFB02F03BFB02F071FC0F21002000F0BBFE7A4A794B1B78DBB243F00103DBB213704C2000F006FF0E21002000F0ACFE012001F0BD
:4004C000DDFF00F057F900F091F9704802F0A2FA6F4801F097FB01F077FF01F0ABFF01F085FF01F083FB034603F00C03DBB2184601F06CFB674B00221A6002F0FDF90346F3
:40050000DBB2184600F020FA03461A46624B1A700421002000F07EFE5F4B1B78092B02D8202000F0CDFE5C4B1B78184601F034F801F0C6F80346002B02D0584B21221A70D5
:4005400002F096F80346DBB2184600F0DFF903461A46534B1A700A21002000F05BFE504B1B78303BDAB24F4B1A704E4B1B78092B02D8202000F0A4FE4A4B1B78184601F0CE
:400580000BF8444B1B68632B65D9424B00221A600621002000F03EFE404B1B78184600F08FFE3E4B20221A700521012000F032FE3D4B1B6842F20F72934202DC202000F066
:4005C0007FFE394B1B68B3F57A7F02DA202000F077FE354B1B68632B02DC202000F070FE314B1B68092B02DC202000F069FE2E4B1B689BB2184600F0CFFF2B4B00221A6029
:40060000202000F05DFE294B1B6842F20F72934202DC202000F054FE244B1B68B3F57A7F02DA202000F04CFE204B1B68632B02DC202000F045FE1D4B1B68092B02DC20205B
:4006400000F03EFE194B1B689BB2184600F0A4FF164B00221A600F4B1B6801330D4A13604FF47A7001F052FA47E700BF402F0000542F0000682F0000782F00008C2F00000F
:400680009C2F0000A081FF1F98C7004029070000B1060000B481FF1F9881FF1FCC80FF1FA481FF1FAC81FF1FB081FF1F9081FF1F80B500AF1A4B1B781B021AB2184B5B78AF
:4006C0001BB213431AB2174B1A80154B9B781B021AB2134BDB781BB213431AB2114B5A80FFF71CFE0F4BB3F900301B121BB2002BB8BF5B42782B09DC0A4BB3F902301B1276
:400700001BB2002BB8BF5B42782B03DD012000F0C7FF02E0002000F0C3FF00BF80BD00BFA881FF1F9481FF1F80B400AF0F4BB3F900301B121BB2DAB20D4B1A700B4BB3F9E7
:400740000030DAB20A4B5A70084BB3F902301B121BB2DAB2064B9A70044BB3F90230DAB2034BDA7000BFBD4680BC7047A081FF1F9C81FF1F80B500AF41F6FF734FF480427A
:400780000121012000F0BEFC03461A46144B1A7001F0F2F803461A46124B1A70114B1878104B1A780623042101F014F90D4B1B780D4A92B246F24651184601F04BF9084BEF
:4007C0001A78084B1B781946104601F067F8044B1B780121184600F0ADFF00BF80BD00BF6C81FF1F7081FF1FA881FF1F80B500AF4FF4804341F6FF720121012000F01EFF80
:4008000003461A46144B1A7001F0B6F803461A46124B1A70114B1878104B1A780523042101F0D8F80D4B1B780D4A91B246F24552184601F00FF9084B1A78084B1B7819463B
:40084000104601F02BF8044B1B780121184600F071FF00BF80BD00BF7181FF1F7481FF1F9C81FF1F80B584B000AF03460A46FB711346BB71002001F001FE01F041FDFB79DE
:400880003B73BB797B7307F10C01002302221A2001F080FC1E2001F039F9012001F0EEFD01F008FD034618461037BD4680BD00BF80B582B000AF002001F0E0FD0023FB71A1
:4008C00016E0FB795B00104A9918002302221A2001F060FC00BF01F0EDFC034603F00403002BF8D1322001F011F9FB790133FB71FB790A2BE5D9012001F0C0FD0123184671
:400900000837BD4680BD00BFA42F000080B584B000AF0346FB71FB79184600F033F80346FB73FB7B002B07D0064AFB7B1370FB7B19460520FFF796FF024B1B78184610376A
:40094000BD4680BD7681FF1F80B584B000AF0346FB71FB79184600F053F80346FB73FB7B1F2B07D8064AFB7B1370FB7B19460320FFF778FF024B1B7818461037BD4680BD7F
:400980007781FF1F80B483B000AF0346FB711A4B1B88FF2B04D9FB799AB2184B1A800BE0164B1B881A4613465B019A1AFB7913445B119AB2114B1A80104B1A880E4B1B8860
:4009C0009A4212D00D4B1A880B4B1A800B4B1B881A465A2303FB02F31B12DBB23133DBB27F2B28BF7F23DBB200E0002318460C37BD4680BC704700BFCE80FF1F7881FF1F3F
:400A000080B483B000AF0346FB71194B1B88FF2B04D9FB799AB2174B1A800BE0154B1B881A4613465B019A1AFB7913445B119AB2104B1A800F4B1A880D4B1B889A4210D03F
:400A40000C4B1A880A4B1A800A4B1B881A461346DB0013449B11DBB21F2BA8BF1F23DBB200E0202318460C37BD4680BC704700BFD080FF1F7A81FF1F80B582B000AF786004
:400A800039603A680021786802F04FFA00BF0837BD4680BD80B584B000AFF860B9607A607A68B968F86802F035FA00BF1037BD4680BD00BF80B483B000AF0346FB71FEE7E5
:400AC00080B582B000AF454B00221A60444B10221A70444B01221A70434B00221A70434B4FF41C721A80424B01221A70414B03221A70414B414A92B21A80414B47F60802BD
:400B00001A80404B00221A803F4B4FF480421A803E4B09221A703E4B0A221A703D4B12221A703D4B18221A70BFF35F8F3B4B01221A70BFF35F8F00BF2C4B1B889BB2002BD8
:400B4000FAD100237B600DE07B68DA00344B13441946344A7B6852F823309BB20B807B6801337B607B684D2BEED9BFF35F8F2B4B01221A70BFF35F8F00BF2B4B1B78DBB22B
:400B800003F00103002BF8D100BF284B1B78DBB203F00103002BF8D100BF254B1B78DBB203F00103002BF8D100BF224B1B78DBB203F00103002BF8D100BF1F4B1B78DBB253
:400BC00003F00103002BF8D106224FF090411B48FFF760FF00BF0837BD4680BD8081FF1F007600401070004019700040007800400278004003780040047800405000000045
:400C000006780040047600400676004029700040397000406970004079700040147000400C780040BC2F00001870004028700040387000406870004078700040105101409F
:400C400080B582B000AF404B04221A803F4B18221A703F4B43F697221A803E4B19221A7008223D493D48FFF715FF3D4B02221A704FF0402308221A703A4B03221A703A4BDD
:400C80003A4A1278D2B21A70394B1A221A80394B42F251221A800023FB7019237B6014E0FB785B00DAB2344B1B78DBB203F00103DBB21343DBB203F00303FB704FF4F070F9
:400CC00002F0D2F87B68013B7B607B68002B02D0FB78032BE4D17B68002B02D10320FFF7E9FE264B4FF480721A80244B07221A70234B00221A70234B48221A701F4B0022BD
:400D00001A70214B02221A70204B04221A70204A1F4B1B78DBB243F00303DBB213701D4A1C4B1B78DBB243F00303DBB213701A4A194B1B78DBB263F07F03DBB2137000BFF4
:400D40000837BD4680BD00BF80400040824000408440004086400040E41A0048004100400043004000420040A1460040080100492242004020420040254200400440004073
:400D80000640004008400040014000400B400040A2430040A1430040A043004080B582B000AF2A4B1B78FB71294B1B78BB71294B1B787B71284AFB7903F00703DBB213700A
:400DC000264AFB791B09DBB21370214ABB7943F00303DBB213701F4A7B7943F00303DBB213701F4B18221A701E4B40221A701E4B40221A701D4B40221A701D4B40221A70CD
:400E00001C4B10221A701C4B20221A701B4B80221A701B4B20221A701A4B05221A701A4B05221A70194B80221A700A2000F06EFE084A7B791370064ABB791370144B4422C1
:400E40001A7000BF0837BD4680BD00BFCF010049F8460040F94600406E5800406F5800400D5100400159004003590040095900400B590040205B0040235B0040285B004072
:400E80002B5B0040435B0040475B0040585B00407658004080B500AF72B6334B60221A70FFF7CEFE314A314B1B78DBB243F00403DBB21370FFF704FE04212D48FFF7DCFD91
:400EC00004222C492C48FFF7E5FD2C4A2B4B1B78DBB243F00203DBB21370294A284B1B78DBB243F00203DBB21370264A254B1B78DBB243F04003DBB21370234A224B1B7876
:400F0000DBB243F01003DBB2137008221F492048FFF7C0FD0A221F491F48FFF7BBFD08221E491F48FFF7B6FD08221E491E48FFF7B1FD08221D491E48FFF7ACFD08221D4917
:400F40001D48FFF7A7FD1D4A1C4B1B78DBB243F00803DBB21370FFF721FF0E2209491848FFF798FD00BF80BD00480040E846004000760040EC1A004808760040035001406B
:400F800013500140A0430040C2430040B01A004802510040B81A0048C0510040C41A0048F2510040CC1A004812510040D41A004822510040DC1A004832510040224300400C
:400FC000B043004080B500AF01F078FF03461B680C2B00D1FEE7FEE780B586B000AF224B7B61224B3B61204B7B6135E03B691B68FB603B695B68BB603B699B683B600023A3
:401000007B600CE0FB681A68BB681A60BB680433BB60FB680433FB607B6804337B607A683B689A42EED13B69DB683B6000237B6008E0BB6800221A60BB680433BB607B6869
:4010400004337B607A683B689A42F2D13B6910333B617B69013B7B617B69002BC6D101F033FFFFF7B7F9FEE7010000005C37000080B582B000AF194B194A1A60194A194BB5
:401080001B6843F40073136000237B600FE07B68032B04D8144A7B6852F8233000E0134B13497A6841F822307B6801337B607B682F2BECD90F4B1B78DAB20F4B1A700F4B26
:4010C0000B4A1A60FFF7E6FE00F006FB0C4B00221A6000BF0837BD4680BD00BF0CED00E00004FA0514ED00E000000000C50F00000080FF1FBC760040C480FF1F08ED00E08E
:40110000C080FF1F90B585B002AF0446084611461A462346FB710346BB710B46BB8013467B80104B00221A700E4B1878BA79F9790023019300230093002300F0CDFB094B7C
:401140001B787A88B988184600F06CFB054B1B780221184600F034FB024B1B7818460C37BD4690BDD280FF1F80B500AF282000F0ABFC032000F0DEF9052000F0A5FC03209A
:4011800000F0D8F90F2000F09FFC032000F0D2F9012000F099FC022000F0CCF9052000F093FC062000F0B4F80E2000F0B1F82C2000F0AEF8082000F0ABF8012000F0A8F8DE
:4011C0000C2000F0A5F8032000F0A2F8052000F07BFC00BF80BD00BF80B500AF0C2000F097F8024B01221A7000BF80BD8481FF1F80B500AF064B1B78002B04D1FFF7B4FF29
:40120000034B01221A70FFF7E7FF00BF80BD00BF8581FF1F80B582B000AF03460A46FB711346BB71FB79032B26D801A252F823F0411200004F1200005D1200006B12000018
:40124000BB79803BDBB2184600F062F815E0BB79403BDBB2184600F05BF80EE0BB796C3BDBB2184600F054F807E0BB792C3BDBB2184600F04DF800E000BF00BF0837BD4646
:4012800080BD00BF80B584B000AF78600123FB737B681B78BB730BE0BB7B184600F01EF8FB7B7A6813441B78BB73FB7B0133FB73BB7B002BF0D100BF1037BD4680BD00BFD8
:4012C00080B582B000AF0346FB71FB79184600F005F800BF0837BD4680BD00BF80B584B000AF0346FB7100F02DF8FB791B09FB73FB7B184600F0E2F8FB7903F00F03FB73FA
:40130000FB7B184600F0DAF800BF1037BD4680BD80B584B000AF0346FB7100F013F8FB791B09FB73FB7B184600F004F9FB7903F00F03FB73FB7B184600F0FCF800BF10379D
:40134000BD4680BD80B582B000AF4FF4CA737B60554A554B1B78DBB223F07F03DBB21370524B1B78DBB223F00F03FB704F4AFB7843F00F03DBB213704D4B1B78DBB223F03F
:401380000F03FB704A4AFB7813704A4B1B78DBB223F00F03FB70474AFB781370424A424B1B78DBB223F02003DBB213703E4A3E4B1B78DBB243F04003DBB21370002000F014
:4013C000A5FB394A384B1B78DBB243F01003DBB21370012000F09AFB374B1B78FB70324A314B1B78DBB223F01003DBB21370002000F08CFBFB7803F00803FB702A4A2A4B01
:401400001B78DBB243F01003DBB21370012000F07DFB254A244B1B78DBB223F01003DBB21370FB78002B02D10A2000F06FFB7B68013B7B60FB78002B02D07B68002BBDD17E
:40144000194A194B1B78DBB223F04003DBB21370154A154B1B78DBB223F07F03DBB21370124A124B1B78DBB223F00F03DBB213700F4B1B78DBB223F00F03FB700C4AFB78BA
:4014800043F00F03DBB213700A4B1B78DBB223F00F03FB70074AFB7843F00F03DBB2137000BF0837BD4680BD205100402251004023510040245100402151004080B582B095
:4014C00000AF0346FB711A4A194B1B78DBB243F02003DBB21370164A154B1B78DBB223F04003DBB21370002000F010FB104A104B1B78DBB223F00F03DBB213700C490C4B23
:401500001B78DAB2FB791343DBB243F01003DBB20B70012000F0FAFA054A054B1B78DBB223F01003DBB2137000BF0837BD4680BD2051004080B582B000AF0346FB71154AD4
:40154000144B1B78DBB223F06003DBB21370114A104B1B78DBB223F00F03DBB213700D490C4B1B78DAB2FB791343DBB243F01003DBB20B70012000F0C9FA064A054B1B78E3
:40158000DBB223F01003DBB2137000BF0837BD4680BD00BF2051004080B586B000AF78600A23FB75FB7D07F118021344002203F8102CFB7D013BFB751CE079681E4BA3FBE9
:4015C0000123DA0813469B0013445B00CA1AD3B23033BB75FB7D07F118021344BA7D03F8102C7B68144AA2FB0323DB087B60FB7D013BFB757B68092BDFD879680E4BA3FB68
:401600000123DA0813469B0013445B00CA1AD3B23033BB75FB7D07F118021344BA7D03F8102CFB7D07F1080213441846FFF72AFE00BF1837BD4680BDCDCCCCCC90B585B06D
:4016400002AF0446084611461A462346FB710346BB710B46BB8013467B80104B01221A700E4B1878BA79F9790023019300230093012300F031F9094B1B787A88B988184677
:4016800000F0D0F8054B1B780221184600F098F8024B1B7818460C37BD4690BDD380FF1F80B483B000AF0346FB71044AFB79137000BF0C37BD4680BC704700BF7865004068
:4016C00080B400AF034B1B78DBB21846BD4680BC704700BF7865004080B483B000AF134B7F221A70124B80221A707F23FB710CE0FB79DB0003F1804303F5F043FA79013A68
:40170000D2B21A70FB79013BFB71FB79002BEFD1FB79DB0003F1804303F5F04300221A7000BF0C37BD4680BC704700BFD580FF1FD480FF1F80B485B000AF03460A46FB718A
:401740001346BB710123FB60FB79172B2FD8BB79002B0ED0FB791A01184B1344FA791101164A0A441278D2B242F02002D2B21A700DE0FB791A01114B1344FA7911010F4A72
:401780000A441278D2B222F02002D2B21A70FB791A010A4B1344FA791101084A0A441278D2B242F00102D2B21A700023FB60FB6818461437BD4680BC704700BF10700040DB
:4017C00080B485B000AF03460A46FB711346BB710123FB60FB79172B1BD8FB791A01104B13441B78DBB223F00E03FB72FB791A010B4B1344BA795200D2B252B202F00E02E2
:4018000051B297F90B200A4352B2D2B21A700023FB60FB6818461437BD4680BC704700BF1070004080B485B000AF0346FB710B46BB8013467B800123FB60BB8841F6FF7275
:40184000934202D14FF40053BB807B8841F6FF72934202D14FF400537B80FB79172B17D8FB79DB0003F1804303F5EC430433BB60BB68BA881A80FB79DB0003F1804303F5EA
:40188000EC430633BB60BB687A881A800023FB60FB6818461437BD4680BC704780B485B000AF03460A46FB711346BB710123FB60FB79172B07D8FB791A01064B1344BA7946
:4018C0005A720023FB60FB6818461437BD4680BC704700BF1070004090B484B000AF0446084611461A462346FB710346BB710B467B7113463B710123FB60FB79172B34D8DA
:40190000FB79DB0003F1804303F5EC43BA7902F07F02D1B27A79D201D2B20A43D2B21A70FB79DB0003F1804303F5EC433A7E1201D1B23A7902F00F02D2B20A43D2B25A705C
:40194000FB79DB0003F1804303F5EC433A7F02F00F02D2B29A70FB79DB0003F1804303F5EC430022DA700023FB60FB6818461037BD4690BC704700BF80B582B000AFFF23D4
:40198000FB7101F090FA0346BB71104B1B78182B12D90F4B1B78FB710C4B1B78013BDAB20A4B1A70FB79DB0003F1804303F5F0431B78DAB2064B1A70BB79184601F077FAA6
:4019C000FB7918460837BD4680BD00BFD480FF1FD580FF1F90B484B000AF0446084611461A462346FB710346BB800B46BB711346FB700123FB6097F90730002B23DBBB8830
:401A000023F47F6323F00F039BB2002B1BD1FB79DB0003F1804303F5F043BB60BB68BA881A80FB79DB0003F1804303F5F043BA799A70FB79DB0003F1804303F5F043FA78C8
:401A4000DA700023FB60FB6818461037BD4690BC704700BF80B485B000AF0346FB710B46BB8013467B800123FB6097F90730002B17DBFB79DB0003F1804303F5F043043359
:401A8000BB60BB68BA881A80FB79DB0003F1804303F5F0430633BB60BB687A881A800023FB60FB6818461437BD4680BC704700BF80B483B000AF0346FB7101BE00BF0C37FD
:401AC000BD4680BC704700BF80B582B000AF786008E00C4B1B68184601F0C6F97B68A3F500437B607B68B3F5004FF2D8064B1B687A6802FB03F3184601F0B6F900BF083791
:401B0000BD4680BDE880FF1FE080FF1F80B582B000AF0346FB80FB88054A127802FB03F3184601F0A1F900BF0837BD4680BD00BFE480FF1F80B584B000AF03463960FB716A
:401B40000F4B1B68FB60FB791F2B02D90020FFF7AFFFFB7903F01F0310339B00FA6813441B68BB60FB7903F01F0310339B00FA6813443A681A60BB6818461037BD4680BDCE
:401B800008ED00E080B582B000AF03460A46FB711346BB71BB79072B02D90020FFF788FFFB791F2B02D90020FFF782FFFB7903F01F0303F1604303F56443BA795201D2B2D9
:401BC0001A7000BF0837BD4680BD00BF80B483B000AF0346FB71044AFB79137000BF0C37BD4680BC704700BF7364004080B400AF034B1B78DBB21846BD4680BC704700BF1C
:401C00007364004080B582B000AF786000F03CF8786800F009F8012000F018F800F028F800BF0837BD4680BD80B485B000AF7860054B1B68FB60FB6840337A681A6000BF2C
:401C40001437BD4680BC704708ED00E080B483B000AF0346FB71054AFB795B01DBB2137000BF0C37BD4680BC704700BF00E400E080B400AF034B01221A6000BFBD4680BC0D
:401C8000704700BF00E100E080B400AF034B01221A6000BFBD4680BC704700BF80E100E080B582B000AF1B4B00221A701A4B01221A7001F0F8F80346FB71184A174B1B7843
:401CC000DBB243F01003DBB21370FB79184601F0EEF8134B0F221A70124B08221A70124B04221A6004210220FFF74CFF0F490220FFF720FF0E4B10221A700E4B00221A7000
:401D00000D4B00221A700D4B00221A7000BF0837BD4680BD726400408464004094640040276400403764004080E100E08D1D0000B881FF1FBC81FF1FC881FF1FC781FF1FD7
:401D400080B400AF054A054B1B78DBB243F00203DBB2137000BFBD4680BC70477264004080B500AF074B1B78002B04D1FFF798FF044B01221A70FFF7E3FF034B04221A6096
:401D800000BF80BD8681FF1F00E100E080B582B000AFA64B1B78FB71A54B1B78DBB203F04003DBB2002B00F0CD81FB7903F00103002B00F0A4819E4B1B78DBB2453B052B9B
:401DC00000F2998101A252F823F000BFE51D00002B1F0000F7200000F7200000E51D000061200000FB7923F02003FB71FB7903F00A03DBB2082B54D18D4B1B78DBB2452B44
:401E000042D18C4B1B78DBB2002B15D08A4A8B4B1B681B78DBB21370894B06221A70894BFF221A70884B00221A70884B01221A707F4B46221A7062E1854B1B78DBB203F0D2
:401E40000203002B0ED0834B1B78DBB243F00A03DAB2804B1A70764B60221A707E4B04221A604CE17D4A7D4B1B78DBB243F02003DBB21370724B52221A70724BFF221A70AA
:401E8000714B00221A703AE16D4B02221A706D4BFF221A706C4B00221A70654B4A221A702DE1FB7903F00A03DBB20A2B39D1694B1B78DBB263F05F03DAB2664B1A70644B80
:401EC0001B78DBB203F00203002B18D0584B1B78DBB203F00803002B01D0092300E00A23DAB25C4B1B78DBB21343DAB2594B1A704F4B60221A70584B04221A60FFE0574AF5
:401F0000564B1B78DBB243F02003DBB213704C4B52221A704B4BFF221A704B4B00221A70EDE00020FFF7C4FDE9E0FB7903F00203002B4AD1454B1B78DAB23E4B1B78DBB2EB
:401F40009A421AD23C4A3D4B1B6840490978C9B20B441B78DBB21370394B06221A70394BFF221A70384B00221A70384B1B78DBB20133DAB2354B1A70C1E0354B1B78DBB24F
:401F800003F00203002B0ED0324B1B78DBB243F00A03DAB22F4B1A70254B60221A702E4B04221A60ABE02D4A2C4B1B78DBB243F02003DBB21370224B52221A70214BFF2227
:401FC0001A70214B00221A7099E0214B1B78DBB203F00203002B0ED01E4B1B78DBB263F06503DAB21B4B1A70114B60221A701A4B04221A6083E0194A184B1B78DBB243F090
:402000002003DBB213700E4B52221A700D4BFF221A700D4B00221A700E4B1B78DBB263F06F03DAB20B4B1A7069E000BF64640040B881FF1FC581FF1F03640040CC81FF1F88
:40204000726400401364004053640040C781FF1FC681FF1FBC81FF1F80E100E084640040404B1B68404A1278D2B213443F4A1278D2B21A703C4B1B78DBB20133DAB23A4B03
:402080001A70394B1B78DAB2394B1B78DBB29A4209D2384B02221A70374BFF221A70374B00221A702BE0364B1B78DBB203F00203002B0ED0334B1B78DBB243F00903DAB2F6
:4020C000304B1A70304B60221A70304B04221A6015E02F4A2E4B1B78DBB243F02003DBB21370244B12221A70234BFF221A70234B00221A7003E00020FFF7DAFC00BFFB796A
:4021000003F02003002B28D01F4B1B78DBB203F00803002B01D0012300E00223DAB2194B1B78DBB21343DAB2164B1A70184A184B1B78DBB223F02003DBB21370124B102222
:402140001A700AE0104B1B78DBB203F01003DBB2002B02D10C4B10221A7000BF0837BD4680BD00BFC081FF1FC881FF1F03640040C481FF1F7264004013640040536400403B
:40218000C681FF1FBC81FF1FB881FF1F80E100E08464004080B485B000AF396011461A460346FB710B46BB7113467B710223FB733B68002B5DD0324B1B78DBB2102B0CD17D
:4021C000304B1B78DBB203F01003002B02D10023FB7314E00123FB7311E0294B1B78DBB2602B0CD10023FB73274B04221A60274B1B78DBB223F00803DAB2244B1A70FB7BEE
:40220000002B36D11E4B45221A70214B00221A70204ABB791370204A3B6813601F4A7B7913701A4B1B78DBB223F00203DAB2174B1A701B4AFB795B00DBB213707B7903F039
:402240000103002B09D0174B32221A70164BFF221A70164B00221A7008E0124B82221A70114BFF221A70114B00221A70104B04221A60FB7B18461437BD4680BC704700BFAC
:40228000B881FF1F6464004080E200E0BC81FF1FC781FF1FC581FF1FCC81FF1FC681FF1F0364004072640040136400405364004000E100E080B483B000AF0D4B04221A604E
:4022C0000C4B1B78FB710C4B1B78DBB203F04003DBB2002B03D0FB7943F00403FB71074B04221A60FB7918460C37BD4680BC704780E100E0BC81FF1FB881FF1F00E100E085
:4023000080B483B000AF094B04221A60084B1B78FB71074B00221A70064B04221A60FB7918460C37BD4680BC704700BF80E100E0BC81FF1F00E100E080B582B000AF00F025
:40234000B2FD0346FB710C4A0B4B1B78DBB243F02003DBB21370FB79184600F0A8FD074A064B1B78DBB243F00403DBB2137000BF0837BD4680BD00BF956500407665004002
:4023800080B400AF0E4A0E4B1B78DBB223F00703DBB213700A4B0A4A1278D2B21A70094A084B1B78DBB223F00703DBB21370054B044A1278D2B21A7000BFBD4680BC70471D
:4023C000866500408765004080B500AF064B1B78002B04D1FFF7D4FF034B01221A70FFF7ABFF00BF80BD00BF8781FF1F80B582B000AF00F058FD0346FB710C4A0B4B1B782A
:40240000DBB243F01003DBB21370FB79184600F04EFD074A064B1B78DBB243F00103DBB2137000BF0837BD4680BD00BF966500407665004080B582B000AF00F034FD0346D0
:40244000FB710C4A0B4B1B78DBB243F01003DBB21370FB79184600F02AFD074A064B1B78DBB243F00203DBB2137000BF0837BD4680BD00BF976500407665004080B483B020
:4024800000AF0346FB71044AFB79137000BF0C37BD4680BC704700BF7664004080B500AF064B1B78002B04D100F00AF8034B01221A7000F029F800BF80BD00BF8881FF1FFA
:4024C00080B500AF102000F071FA07210420FFF759FB0A490420FFF72DFB094A084B1B78DBB243F00603DBB21370082000F086F8044B00221A8000BF80BD00BF1927000094
:4025000009590040D481FF1F80B582B000AF00F0CAFC0346FB712E4A2D4B1B78DBB243F00203DBB213702B4A2A4B1B78DBB243F00203DBB21370284A274B1B78DBB243F024
:402540000203DBB21370254A244B1B78DBB243F00203DBB21370224B1B78BB71BB7943F00203BB71BB7943F00103BB711C4ABB7913701C4B18221A701B4A1B4B1B78DBB272
:4025800043F04003DBB21370174A174B1B78DBB223F00303DBB21370144BC8221A70144B02221A70134A134B1B78DBB243F00803DBB213700A20FFF7A9FA0F4B10221A60B7
:4025C000FB79184600F073FC00BF0837BD4680BDAB430040BB430040A1430040B14300400B5900400E5900400D59004008590040164600402F5B004080E200E080B584B005
:4026000000AF0346FB71FB790A2B07D00C2B02D0082B06D008E0C223FB730BE08223FB7308E04223FB7305E0C223FB730020FFF73FFA00BF054AFB7B1370FB79184600F060
:402640002BF800BF1037BD4680BD00BF0A59004080B400AF054A054B1B78DBB243F00103DBB2137000BFBD4680BC70470859004080B400AF064B1B78DAB2064B1B881BB23C
:40268000DBB2D31ADBB25BB21846BD4680BC7047A25B0040D081FF1F80B584B000AF0346FB71FB790A2B08D00C2B02D0082B08D00BE04FF48053FB600DE04FF48063FB60DA
:4026C00009E04FF48073FB6005E00023FB600020FFF7EEF900BF0C4B00221A80FB6842F2107202FB03F303F6C413084A82FB0312D212DB17D31A064A1360064B00221A80DB
:4027000000BF1037BD4680BDD281FF1FAD8BDB68D881FF1FD081FF1F80B400AF00BFBD4680BC704780B500AF064B1B78002B04D100F00AF8034B01221A7000F029F800BF64
:4027400080BD00BF8981FF1F80B500AF102000F047F907210320FFF715FA0A490320FFF7E9F9094A084B1B78DBB243F00603DBB21370082000F086F8044B00221A8000BFE1
:4027800080BD00BFA129000001590040E081FF1F80B582B000AF00F086FB0346FB712E4A2D4B1B78DBB243F00103DBB213702B4A2A4B1B78DBB243F00103DBB21370284AE4
:4027C000274B1B78DBB243F00103DBB21370254A244B1B78DBB243F00103DBB21370224B1B78BB71BB7943F00203BB71BB7943F00103BB711C4ABB7913701C4B18221A7018
:402800001B4A1B4B1B78DBB243F04003DBB21370174A174B1B78DBB223F00303DBB21370144BC8221A70144B02221A70134A134B1B78DBB243F00803DBB213700A20FFF7F2
:4028400065F90F4B08221A60FB79184600F02FFB00BF0837BD4680BDAB430040BB430040A1430040B14300400359004006590040055900400059004014460040275B004040
:4028800080E200E080B584B000AF0346FB71FB790A2B07D00C2B02D0082B06D008E0C223FB730BE08223FB7308E04223FB7305E0C223FB730020FFF7FBF800BF054AFB7BBE
:4028C0001370FB79184600F02BF800BF1037BD4680BD00BF0259004080B400AF054A054B1B78DBB243F00103DBB2137000BFBD4680BC70470059004080B400AF064B1B78D2
:40290000DAB2064B1B881BB2DBB2D31ADBB25BB21846BD4680BC7047A05B0040E481FF1F80B584B000AF0346FB71FB790A2B08D00C2B02D0082B08D00BE04FF48053FB6066
:402940000DE04FF48063FB6009E04FF48073FB6005E00023FB600020FFF7AAF800BF0C4B00221A80FB6842F2107202FB03F303F6C413084A82FB0312D212DB17D31A064AAF
:402980001360064B00221A8000BF1037BD4680BDE281FF1FAD8BDB68DC81FF1FE481FF1F80B400AF00BFBD4680BC704780B483B000AF0346FB710949084B1B78DBB25AB223
:4029C00097F9073023F007035BB213435BB2DBB20B7000BF0C37BD4680BC70470641004080B483B000AF0346FB710949084B1B78DBB25AB297F9073023F007035BB2134319
:402A00005BB2DBB20B7000BF0C37BD4680BC70470241004080B582B000AF786000F03CF8786800F009F8002000F018F800F028F800BF0837BD4680BD80B485B000AF7860C5
:402A4000054B1B68FB60FB6844337A681A6000BF1437BD4680BC704708ED00E080B483B000AF0346FB71054AFB795B01DBB2137000BF0C37BD4680BC704700BF01E400E0A7
:402A800080B400AF034B02221A6000BFBD4680BC704700BF00E100E080B400AF034B02221A6000BFBD4680BC704700BF80E100E080B500AF022000F039F800BF80BD00BFAC
:402AC00080B400AF0D4A0D4B1B78DBB243F06003DBB213700A4A0A4B1B78DBB243F00203DBB21370074A074B1B78DBB243F00203DBB2137000BFBD4680BC7047775800409E
:402B0000A4430040B443004080B500AF064B1B78002B04D1044B01221A70FFF7C9FFFFF7CFFF00BF80BD00BF8A81FF1F80B483B000AF0346FB710C4A0B4B1B78DBB223F063
:402B40000303DBB213700849074B1B78DAB2FB7903F00303DBB21343DBB20B7000BF0C37BD4680BC704700BF5A58004080B500AF022000F039F800BF80BD00BF80B400AFB7
:402B80000D4A0D4B1B78DBB243F06003DBB213700A4A0A4B1B78DBB243F00803DBB21370074A074B1B78DBB243F00803DBB2137000BFBD4680BC704777580040A44300408D
:402BC000B443004080B500AF064B1B78002B04D1044B01221A70FFF7C9FFFFF7CFFF00BF80BD00BF8B81FF1F80B483B000AF0346FB710C4A0B4B1B78DBB223F00303DBB236
:402C000013700849074B1B78DAB2FB7903F00303DBB21343DBB20B7000BF0C37BD4680BC704700BF5E580040F8B500AF304A304B1B78DBB243F01003DBB213702D4A2D4B94
:402C40001B78DBB223F00103DBB213702A4B3F221A702A4B3F221A70294A2A4B104619464FF480731A4600F055F9274A254B104619464FF480731A4600F04CF9234A244B9F
:402C8000104619464FF480731A4600F043F9214A214B104619464FF400731A4600F03AF91E4A1F4B104619464FF400731A4600F031F91C4B1C4A14461E4604F1400E3546D8
:402CC0002346186859689A68DB680FC5103410367445F4D1094B00221A70002000F09CF8002000F0ADF8114BF8221A7000BFF8BDA643004080C7004088C700408CC700406A
:402D000000C40040F430000000C5004000C600403436000000C00040F431000000C20040F433000000C70040F435000084C7004080B400AF0D4A0D4B1B78DBB243F01003F5
:402D4000DBB213700A4A0A4B1B78DBB243F01003DBB21370074A074B1B78DBB243F00103DBB2137000BFBD4680BC7047A6430040B643004080C7004080B500AF064B1B78B4
:402D8000002B04D1FFF750FF034B01221A70FFF7CFFF00BF80BD00BF8C81FF1F80B485B000AF0346FB71FB79002B03D1094B1B88FB8108E0FB79012B03D1074B1B88FB81A9
:402DC00001E00023FB81FB8918461437BD4680BC704700BFA9C70040ADC7004080B483B000AF03460A46FB711346BB80FB79002B03D1074ABB88138005E0FB79012B02D16C
:402E0000044ABB88138000BF0C37BD4680BC7047A1C70040A5C7004080B483B000AF0346FB71FB7903F01F03FB71044AFB79137000BF0C37BD4680BC704700BF98C70040C7
:402E400080B483B000AF0346FB71FB7903F00F03FB71044AFB79137000BF0C37BD4680BC704700BF9CC70040142816D902B4012114381049097811F0C001890904B40E4A76
:402E8000515C04BC00BF00BF00BF8841FDD500BF00BF02BC704700BF00BF70F10400FCD570470B050709EFF3108072B6704780F31088704700480040A22E0000014B186818
:402EC000704700BF4C81FF1F0E4B70B51E460E4C0025E41AA410A54204D056F8253098470135F8E700F028FC084B094C1E46E41AA4100025A54204D056F8253098470135A2
:402F0000F8E770BD4437000044370000443700004C37000010B5431E0A44914204D011F8014B03F8014FF8E710BD03460244934202D003F8011BFAE7704700000000000045
:402F4000427574746572776F727468204C504620000000003465206F72646520322C3030206B487A0000000050313A20566F6C2075697467616E670050323A204C65766574
:402F80006C20696E67616E67000000004C65763A20202048503A2020000000004C696E653A0000001E000C000E02001F021F046406640A00081210A0120100002800000021
:402FC000300000003800000040000000480000004800000048000000480000008081FF1F8081FF1F8081FF1F8081FF1F8081FF1F8081FF1F8081FF1F8081FF1F8081FF1FF2
:403000000800004810000048180000482800004830070048700700482000004830000048B000004830010048B001004830020048B002004830030048B0030048300400482A
:40304000B004004830050048B005004830060048B006004890070048A0070048B007004830080048B008004830090048B0090048300A0048B00A0048300B0048B00B004885
:40308000300C0048B00C0048300D0048B00D0048300E0048B00E0048300F0048B00F004830100048B010004830110048B011004830120048B012004830130048B013004898
:4030C00030140048B014004830150048B015004830160048B016004830170048B017004830180048B018004830190048B0190048301A004820130025611780260100802673
:4031000020138026C20C8026E00E8026A40A802663171006860880266806806D6606802F2002106F008080262002806F008080262002806F2002806F211A40FE00008026E1
:40314000022210660080106E01828026000000000000000000000000000000000000000000000000000000000000000000000000000000000000000000000000000000008E
:40318000000000000000000000000000000000000000000000000000000000000000000000000000000000000000000000000000000000000000000000000000000000000F
:4031C00000000000000000000000000000000000000000000000000000000000000000000000000000000000000000000000000000000000000000000000000000000000CF
:40320000000000000000000000000000000000000000000000000000000000000000000000000000000000000000000000000000000000000000000000000000000000008E
:40324000000000000000000000000000000000000000000000000000000000000000000000000000000000000000000000000000000000000000000000000000000000004E
:40328000000000000000000000000000000000000000000000000000000000000000000000000000000000000000000000000000000000000000000000000000000000000E
:4032C00000000000000000000000000000000000000000000000000000000000000000000000000000000000000000000000000000000000000000000000000000000000CE
:40330000000000000000000000000000000000000000000000000000000000000000000000000000000000000000000000000000000000000000000000000000000000008D
:40334000000000000000000000000000000000000000000000000000000000000000000000000000000000000000000000000000000000000000000000000000000000004D
:40338000000000000000000000000000000000000000000000000000000000000000000000000000000000000000000000000000000000000000000000000000000000000D
:4033C00000000000000000000000000000000000000000000000000000000000000000000000000000000000000000000000000000080000BA34000075690000BA3400000B
:403400004BE86E00B06ECC0055CB0500AB960B0055CB050057836100B963DA000000000000000000000000000000000000000000000000000000000000000000000000003A
:40344000000000000000000000000000000000000000000000000000000000000000000000000000000000000000000000000000000000000000000000000000000000004C
:40348000000000000000000000000000000000000000000000000000000000000000000000000000000000000000000000000000000000000000000000000000000000000C
:4034C00000000000000000000000000000000000000000000000000000000000000000000000000000000000000000000000000000000000000000000000000000000000CC
:40350000000000000000000000000000000000000000000000000000000000000000000000000000000000000000000000000000000000000000000000000000000000008B
:40354000000000000000000000000000000000000000000000000000000000000000000000000000000000000000000000000000000000000000000000000000000000004B
:40358000000000000000000000000000000000000000000000000000000000000000000000000000000000000000000000000000000000000000000000000000000000000B
:4035C0000000000000000000000000000000000000000000000000000000000000000000000000000000000000000000000000000008000089040000000000000201000033
:403600007E3F0000FF3F0000000000000000000000000000000000000000000000000000000000000000000000000000000000000000000021F805014210864063F81101EB
:403640000489A42001F805010000000000000000000000000000000000000000000000000000000000000000000000000000000000000000000000000000000000000000FA
:40368000000000000000000000000000000000000000000000000000000000000000000000000000000000000000000000000000000000000000000000000000000000000A
:4036C00000000000000000000000000000000000000000000000000000000000000000000000000000000000000000000000000000000000000000000000000000000000CA
:403700000000000000000000000000000000000000000000000000000000000000000000000000000000000000000000000000000000000043000000F8B500BFF8BC08BC62
:403740009E467047E502000071100000F8B500BFF8BC08BC9E467047C102000070370000C880FF1F880000009800000000000000000000002000E803E803FFFF807F0000E4
:4037800003000000802FA604B03001004E00000000005898000000000000000000000000000000000000000000000000000000000000000034370000000000000000000023
:4037C00000000000000000000000000000000000000000000000000000000000000000000000000000000000000000000000000000000000EC80FF1F00000000000000003F
:403800000000000000000000000000000000000000000000000000000000000000000000000000000000000000000000000000000000000000000000000000000000000088
:403840000000000000000000000000000000000000000000000000000000000000000000000000000000000000000000000000000000000000000000000000000000000048
:403880000000000000000000000000000000000000000000000000000000000000000000000000000000000000000000000000000000000000000000000000000000000008
:4038C00000000000000000000000000000000000000000000000000000000000000000000000000000000000000000000000000000000000000000000000000000000000C8
:020000040003F7
:0200000480007A
:4000000006000000000000008000000000000000185A0000000000001316000000000000F5030000000000000000000000000021100007400104000022010500083F0700B4
:40004000C0060700051878063A01041E032A00100332000801220018011C0022FF22000000008060001F7F00082000000000400000000000000000000000000000000000C0
:400080000000F60000000000040400040000000100000000000000000000000000000000000000000000000000000000000000000000010009000200000000000000000031
:4000C00000000000000000000000000000000000000004000000000000000000000000000800010004000200000000030000010026000000030B00D021FF7FFF42A07000F5
:400100000C0000000000080004090404119000010009400930090000000000000000000000000000000000000000000000000000000000401004022100250800002514008C
:40014000400080100FB100020001180E040008803F050020100001000004200140B180083F300040000FC08002000020000000000000000000000000000000000000000007
:40018000000000002000040004040004000000010000000000000000000000000000000000000000000000000000000000000000034000130033010C020E0930084602A936
:4001C00003FF000000000B00002A14541F00000010000B00018000560F000000010000011F000000000000FF00000000000000000000000000000000000000000000000020
:4002000000000000000008000404000400900001000000000000000000000000000000000000000000000000000000000000000000000000000200000000001800000000FF
:40024000000000100104000008000609020000000000000000000009000400000900060000010304080204182800800000000001000000000000000000000000000000005D
:4002800000000000000008000A090004999000010000000000000000000000000000000000000000000000000000000000000000000F00003B0F00000000000F330008044E
:4002C00008204042089070001B002008048000001300280F3B90000000200041000002080680780F0070011082A2080000004154540000000002500009FFFFFF42A07000B8
:4003000008100000000000000404040000000001004840488048804800000000000000000000000000000000000000000000000000020141A5004A20FF00000000010206DD
:40034000CC00130B040300184D00920B0003B5001A00600B0000040302010014A900540000000040FF3800070000C0A0000010000000000000000000000000000000000044
:4003800000000000000008000804000401900001000000000000000000000000000000000000000000000000000000000000000000410004000F00000045010A00460000A9
:4003C0000241000200010022054008020088000500000000000000100000000000000000040008E0021F01000008000000001104000000000000000000000000000000007E
:40040000000000000000000004040004010000010000000000000000000000000000000000000000000000000000000000000000000800010039000400200001003900040A
:40044000000000000039000400100001000200000000000000000000000000000000000000020007003A000080000000000040000000000000000000000000000000000029
:400480000000000000000000040A0000900000010000000000000000000000000000000000000000000000000000000000000000800040001080C01002FFC000FF0000803D
:4004C0000080BF04C000207F00803F010800C07F0480C00800804002C080012000800040FFFF0000000000000000000000000000230500000000E0BC38FFFFFF000000002D
:4005000004000000000002280A0A0A0A999900010000C0004001800030004010100040A800000000000000000000000000000000000D305200000105000060000000020042
:400540000053048800001000008160620000080060000005000000006005000005000A3F400230C0033C0C03002000000000010043050200010EC00009FFFFFF0220000542
:4005800004000700010000000909090999990001000040014001500140017010401000000000000000000000000000000000000000000000000100000000000200000000F1
:4005C000000000000000000000000000000000000000000000000004000000000000000000010004000200000000C000000000000000000000000000000000000000000030
:4006000000000000010000000904000A0190000100000000000000000000000000000000000000000000000000000000000000000001000000E2000012000102010032FFE6
:40064000015D06A20040131D0000000800920060003D13C200041BE001010400000D0000070008FF20001000000002C00000400400000000000000000000000000000000A2
:400680000000000000000000040A000410000001000000000000000000000000000000000000000000000000000000000000000000000001090002080000000000010802F8
:4006C0000000000000000000000000000000000400000000000000000000040000000000020208080401010400000000000040000000000000000000000000000000000094
:400700000000000000000800040400041190000100000000000000000000000000000000000000000000000000000000000000000000000000000000000000000000000003
:4007400000000000000000000000000000000000000000040000000F000000000000000000000000000000080000000000000000000000000000000000000000000000005E
:4007800000000000003F00000000000000000000030114000000000000000301030100000301140000000000030101010301000000000000000000000000000000000000B8
:4007C00000000000000000000000000000000000000000000000000000000000000000000000000000000000000000000000000000000000000000000000000000000000F9
:4008000000000000000000000000000000000000000000000000000000000000000000000100000000010000000000000000000001000000000000000000000001000000B4
:4008400000000000010000000001000000000000000000000000000000000000000000500000000000810000000000000000000000000000000000000000000000000000A5
:4008800000000000000000000000000001000400000000000800000000000800020000000000000000000000000000000000000000000000000000000000088000800020F9
:4008C00000000000000000000000000000000010000000000000000000000000000000000000000000000000000000000000000000000000000000000000000000000000E8
:400900000000000000000000000000000000000000000000000000000000000000000000000000000800000000000000000000000000000000000000080000000000001097
:4009400000000000010008000000000000000000000000000000000000000000000000000000000000000000000000000000000000000F000000010000000000000000005E
:400980000000000000000000000000000000040000000800040000000000000000000000000000000000000000000000000000000000000000000000000000000000000027
:4009C00000000000010008000000000000000000000000000000000000000000000800000000000000000000000000000000000000000000000000000000000000000000E6
:400A000000000000000000000000000000000000000000000000000000000000000000000000000000000000000000000000000000000000000800000000000000000000AE
:400A400000000000000000000000800000000000000000000000000000000000000000000000000000000000000000000000000000000000000000000000000000000000F6
:400A80000000000000000000000000000000000000000000000000000000000000000000000000000000000000000000000000000000000000000000000000000000000036
:400AC0000000000001008800000000000000000000000000000000000000000000000000000000000000400000000000000000000400000000000800000000000000000021
:400B000000000000000000000000000000000000000000000000000000000800000000000000000000000000000000000000000000000000000000000000000000000000AD
:400B40000000000000000000000000000000000000000000000000000000000000000000000000000000000000000000000000000000000000000000000000000000000075
:400B80000000000000000000000000000100000000000000000000000000000000000000000000000000000000000000000000000000000000000000000004000000000030
:400BC00000000000000000000000000000000000000000000000000000000000000000001000000000000000000000000000000000000000000000000000000000000000E5
:400C000000000000000001000000000000000000000001000000000000000400000000000000000000000000000000000000000000000000000000000000000000000000AE
:400C40000000000010000000000000000000000000000000000000000000000000000000000000000000000000000000000000000000000000000000000000000000000064
:400C80000000000000000000000000000000000000000000000000000000000000000000000000000000000000000000000000000000000000000000000000000000000034
:400CC00000000000000000000000000000000000000000000000000000000000000000000000000000000000000000000000000000000000040000000000000000000000F0
:400D000000000000000000000000000000000000000000000000000000000000000000000000000000000000000000000000000000000000000000000000000000000000B3
:400D400000000000000000000000000000000000000000000000000000000000041000000080000000200000000000000000000000000000000000000000000000000000BF
:400D800000000000000000000000000000000000000000001400000000000800C00002000000000000000000000000000000000000000000022000120000000008004900D0
:400DC00000000000000000250100000000004002103900440000004000000000005009002008004000000461001100442088000020002000002800000000000000000040F3
:400E000000000000000021040000000000000000000000000000002000000000295901100000000000200821000010200000002000400000000000000000000001010000FF
:400E4000000000201062010000010006202001001040140008040006200000000040000000200000040000000000000000000000F000F000700000000000F000FE007F00E0
:400E800060001000000000004000000000004200000000000400400000000000080002000000000000000000000000000000000000000022009000000000000000005000F0
:400EC000000004000008480000402022001050800041440800044000000000000900005000800000A00002040482000000020850000000000000000000000000000000000C
:400F0000000000000000000004200040001086000480040000000000000000000080000000000000000000000000000000001000000000080004080000400000000000400B
:400F4000000004F000008800A1004004004008000801030000040080000010000004000001886040000000140000000000000000C5003000720000000000F000F800FB009D
:400F8000000000000000FE000E00000000004000000000000000000020000000800050000000000000000000000000000000000000000000160001000000000001001208C3
:400FC0000000000000620000004000002480520000200110000122290000040008000102000000000000200108002000000A0000000000000080002900000420000012009B
:4010000000000000000000200000204020004000000000000000000000000000019408040000000000000000000018000000000400000800020001100000000000001000E8
:40104000080000080014001001012442022000200000100000000020001080100420000080050800401020010000000000000000F000F000D00000000000B200A000C600D8
:40108000F000100000003C000000000000002600080044000200000000000800000004000000000000000000000000000000000010000300040208010000880008A2000020
:4010C000000000000010A10010110200000002200414100000600014000000200000005400AA000080002204802089A800882011800200000001000100000000000000008C
:401100000000000000000000005900002090000000000000000000010000000000000000000000000000000000000000000001000000000000000000008000000000000024
:401140008000041000000000200A010000000000080B000000400080000000000000000000080000200001000000000000000000F200FA00F00000000000E200FF00DF0018
:401180000000000000001F0010000000000010000000000080000000C00000004000080000000000000000000000000000000000048000000000000002101100000026009B
:4011C000020090000040000040441000000026040A0908000000005A0089900000200020009800020000002A800A0410001400004000000002800000010800000000000050
:4012000000000010000000000000000020000040000000000900000000000000004000000000000000000000000000000800000408000000000000000000000000004000A1
:401240000C0801408002402120019000865428000A000002042008000010000020100001000000010402800200000000000000000500EF008D00000000006F00EF006F0033
:401280000100080000003000300000000000600000000000C000000000000000000008000000000000000000000000000000000000000080000200000040000000000000DB
:4012C00080000410000000000002000000000000080900000000000040000000000004000002001000000000000000000000000000000000000000000000000000000000F1
:4013000000000000000000000000000000000000000000000000200080001000800000000000000000000000000000000000000004200100803200108000802402080A005E
:4013400001005800001200440001810040000002005491800240000002104300020008000400910002100100401010060480822100000000000000000000000000000000BF
:401380000000000000000000000400A104004800084000800100000200000000000000000000000000000000000000000000000008000000004904040000002000000000F8
:4013C000080108408282000000001054021020000A10001104200440000800000000020001800000000000000000000000000000F700FF00FF00000000005D00AF00FF00E4
:401400000000000000001F001D0000000000000002000000000004000300100000000000000000000000000000000000000000000008000000000000000000000801000046
:40144000000000000000000000000000000000000000000000000000000000000000000000000000000000000000000000000000000000000000000000000000000000006C
:40148000000000000000000000000000000000001000800010000000000020000000000000000000000000000000000000000000000000A0825608000000000000491A2069
:4014C0000000400002408014000000A50000210000000200001800000000000000821800000000000040150000000000006001040020200000081000040000040000000042
:401500000202000000000000400000000000000000004000000000000801880004000010000000000184000400000004000000000002C000000000004000000000040044AB
:40154000000000400000000000000000000000000000000000000040000000400000000000000040000000000000000000000000FC00F000F80000000000F000F000F000B7
:40158000060004000000080008000000000004000100000000000000000000000000000000000000000000000000000000000000000000000000000000000000000000000C
:4015C00000080000000800000000000000000000000000000000000000000000000000000000000000000000000000000000000000000000000000000000000000000000DB
:40160000000000000000000000000000000000000000000000000000000000000000000000002000000000000000000000000000000000000000000000000000000020006A
:4016400000000000000800000000000000000000000000000004000000000001000000400000000000000000000000000000000000000000300000000000000000000000ED
:40168000000000000000000000000000800000000000000000000000000000000000600000000000000000000000000000000000000000000000000000000000000000004A
:4016C00000000000000000000000000000000000000000000000000000000000000000000000000000000000000000000000000000000000000000000000000000000000EA
:4017000000000040000000082000000000001000000000000000000000000000000000000000000000000000000000000000000000000000000000000000000040000000F1
:4017400000001080400800422000000000000000000000080004000000000040000000000000000000000000000000000000000000000000000000000000000000000000E3
:4017800000000000E00020000000000000000000000000000000000000002000000000000000000000000000000000000000000000001000000000000004000000040000F1
:4017C000000000804000004220000000000000000000000800000040200000000000000000000000000000000000000000000000000000000000000000000000000000005F
:4018000000000000000000000000000000000000000080000000000000008000000000000000000000000000000000000000000000000000000000000000000000000000A8
:401840000000000000000000000000000000000000000000000000000000000000000000000000000000000000000000000000000000000000000000000000000000000068
:401880002000000000000040000000000000000000000000000000000000000000000000000000000000000000000000000000000000000020000040000000000000000068
:4018C000000000004000004200000000000000000000000800000000000000000000000000000000020000000000000000000000000000000000000000000000000000005C
:40190000000000006000000000000000000000000000100000001000000000000000000000000000000000000000000000000000000000080000000000000000000000001F
:4019400000000000400000420000000002000000000000000000000000000002000000000000000000000000000000000000000000000000000000000000000000000000E1
:401980000000000000000000000000000000000000000000000080000000200000000000000000000000000000000000000000000000000000000000000000000000000087
:4019C0000000000000000000000000000000000000000000000000000000000000000000000000020200000000000042400000000000000000000000000000000000000061
:401A000000000000000000000000000000000000000000000000000000000000000000000000000000000000000000000000000000000000000000000000000000000000A6
:401A4000000000000000000000000000000000000000000000000000000000000000000000000000000000000000000000000000000000000000000000000000C000700036
:401A80000000000000000000000000000000000000000000000000000000000000000000000000000000000000000000000000000000000000001800030020585B005B00DD
:401AC00000000000201F1F001F00000000FF0B000000000000FFFF0080000000000000000000E8003000180130001801000100000000000000000000000000000000000066
:401B000000000000000000000000000000000000000000000000000000000000000000000000000000000000000000000000000000000000000000000000000000000000A5
:401B40000000000000000000000000000000000000000000000000000000000000000000000000000000000000000000000000000000000000000000000000000000000065
:401B80000000000000000000000000000000000000000000000000000000000000000000000000000000000000000000000000000000000000000000000000000000000025
:401BC00000000000000000000000000000000000000000000000000000000000000000000000000000000000000000000000000000000000000000000000000000000000E5
:0200000490006A
:040000000800C0052F
:0200000490105A
:04000000BC90ACAF55
:0200000490303A
:020000007C99E9
:0200000490402A
:4000000000000000000000000000000000000000000000000000000000000000000000000000000000000000000000000000000000000000000000000000000000000000C0
:400040000000000000000000000000000000000000000000000000000000000000000000000000000000000000000000000000000000000000000000000000000000000080
:400080000000000000000000000000000000000000000000000000000000000000000000000000000000000000000000000000000000000000000000000000000000000040
:4000C0000000000000000000000000000000000000000000000000000000000000000000000000000000000000000000000000000000000000000000000000000000000000
:0200000490501A
:0C00000000012E16106900012E298D024F
:00000001FF