:400000000080002011000000390F0000390F000080B500AF024A034B1B68136000F096FFBC760040FA46004001000000002000400100000000200140010000000048004048
:400040000100000000480140010000000100000008000223000008760800032300001076080004230000287608000523000030760500062300002070050007230000307065
:4000800005000823000060700500FE23000070704000FE220000305180010B220000000080010C220000000A80010D220000000C80010E220000000E80010F220000001AAB
:4000C000800010220000004180001122000000438000FE2200000047070013230000105206001423000060520700152300007852080016230000285B4000172300000064F7
:400100002000FE2300007065080019230000005180001A230000000280001B230000800280001C230000000480001D230000800480001E230000000680001F2300008006FF
:4001400080002023000000088000212300008008800022230000001480002323000080148000242300000016800025230000801680002623000000188000272300008018B7
:400180001000282300001050100029230000005080002A230000004D80002B230000804D80002C230000004C80002D230000804C80002E230000804780002F2300000046BC
:4001C00080003023000080468000312300000045800032230000804580003323000000448000342300008044800035230000801B800036230000001580003723000080152E
:400200008000382300000019800039230000801980003A230000001780003B230000801780003C230000000980003D230000800980003E230000000780003F23000080074A
:40024000800040230000800B80004123000000058000422300008005800043230000800D80004423000000038000452300008003800046230000800F800047230000800112
:400280008000482300000049800049230000804980004A230000004880004B230000804880004C230000804380004D230000004280004E230000804280004F230000804120
:4002C00080005023000000408000FE230000804010B5054C237833B9044B13B10448AFF300800123237010BD5081FF1F00000000142B0000084B10B51BB108490848AFF373
:4003000000800848036803B910BD074B002BFBD0BDE81040184700BF000000005481FF1F142B0000C880FF1F0000000080B500AF02F01EFB034603F00103002B03D01B4B73
:4003400000221A8004E01A4BB3F90020174B1A8002F00EFB034603F00203002B03D0134B00225A8004E0124BB3F902200F4B5A800F4BB3F9003083EAE372A2EBE3720D4BA7
:400380001B689342B8BF13460A4A1360084BB3F9023083EAE372A2EBE372074B1B689342B8BF1346044A136000BF80BD9C81FF1F9081FF1FAC81FF1F8C81FF1F80B500AF7E
:4003C00062B601F07BFC00F0CDFE012000F05AFF0021002000F0D8FE8B4800F00DFF0021012000F0D1FE894800F006FF4FF4FA7001F024FB012000F045FF0021002000F078
:40040000C3FE834800F0F8FE0021012000F0BCFE804800F0F1FE4FF4FA7001F00FFB012000F030FF0021002000F0AEFE7A4800F0E3FE0021012000F0A7FE784800F0DCFEFE
:40044000774B00221A80764B00225A8000F0FCF901F0D2FF02F0AAF802F012F902F0EAF9012001F0B9FF00F051F900F08BF96D4802F096FA6C4801F073FB01F053FF01F03E
:4004800087FF01F061FF694B00221A6002F0E2F90346DBB2184600F023FA03461A46644B1A700421002000F06FFE614B1B78092B02D8202000F0BEFE5D4B1B78184601F0C0
:4004C00025F801F0B7F80346002B02D0594B21221A7002F07BF80346DBB2184600F0E2F903461A46544B1A700E21002000F04CFE514B1B78303BDAB2504B1A704F4B1B7851
:40050000092B02D8202000F095FE4C4B1B78184600F0FCFF454B1B68632B65D9434B00221A600621002000F02FFE424B1B78184600F080FE3F4B20221A700521012000F091
:4005400023FE3F4B1B6842F20F72934202DC202000F070FE3A4B1B68B3F57A7F02DA202000F068FE364B1B68632B02DC202000F061FE334B1B68092B02DC202000F05AFE92
:400580002F4B1B689BB2184600F0C0FF2C4B00221A60202000F04EFE2A4B1B6842F20F72934202DC202000F045FE264B1B68B3F57A7F02DA202000F03DFE224B1B68632B28
:4005C00002DC202000F036FE1E4B1B68092B02DC202000F02FFE1B4B1B689BB2184600F095FF184B00221A60104B1B6801330F4A13604FF47A7001F043FA02F0C5F9034615
:40060000184601F09DFA41E7182B0000282B0000382B0000482B00005C2B0000702B00009C81FF1FC106000049060000B081FF1F9481FF1FCC80FF1FA081FF1FA881FF1F5B
:40064000AC81FF1F8C81FF1F80B500AF1A4B1B781B021AB2184B5B781BB213431AB2174B1A80154B9B781B021AB2134BDB781BB213431AB2114B5A80FFF758FE0F4BB3F99A
:4006800000301B121BB2002BB8BF5B42782B09DC0A4BB3F902301B121BB2002BB8BF5B42782B03DD012000F0B5FF02E0002000F0B1FF00BF80BD00BFA481FF1F9081FF1FC6
:4006C00080B400AF0F4BB3F900301B121BB2DAB20D4B1A700B4BB3F90030DAB20A4B5A70084BB3F902301B121BB2DAB2064B9A70044BB3F90230DAB2034BDA7000BFBD4677
:4007000080BC70479C81FF1F9881FF1F80B500AF41F6FF734FF480420121012000F0ACFC03461A46144B1A7001F0E0F803461A46124B1A70114B1878104B1A7806230421D5
:4007400001F002F90D4B1B780D4A92B246F24651184601F039F9084B1A78084B1B781946104601F055F8044B1B780121184600F09BFF00BF80BD00BF6C81FF1F7081FF1F38
:40078000A481FF1F80B500AF4FF4804341F6FF720121012000F00CFF03461A46144B1A7001F0A4F803461A46124B1A70114B1878104B1A780523042101F0C6F80D4B1B78B7
:4007C0000D4A91B246F24552184601F0FDF8084B1A78084B1B781946104601F019F8044B1B780121184600F05FFF00BF80BD00BF7181FF1F7481FF1F9881FF1F80B584B09C
:4008000000AF03460A46FB711346BB71002001F0E3FD01F023FDFB793B73BB797B7307F10C01002302221A2001F062FC1E2001F027F9012001F0D0FD01F0EAFC03461846B8
:400840001037BD4680BD00BF80B582B000AF002001F0C2FD0023FB7116E0FB795B00104A9918002302221A2001F042FC00BF01F0CFFC034603F00403002BF8D1322001F048
:40088000FFF8FB790133FB71FB790A2BE5D9012001F0A2FD012318460837BD4680BD00BF782B000080B584B000AF0346FB71FB79184600F033F80346FB73FB7B002B07D0C9
:4008C000064AFB7B1370FB7B19460520FFF796FF024B1B7818461037BD4680BD7681FF1F80B584B000AF0346FB71FB79184600F053F80346FB73FB7B1F2B07D8064AFB7B5A
:400900001370FB7B19460320FFF778FF024B1B7818461037BD4680BD7781FF1F80B483B000AF0346FB711A4B1B88FF2B04D9FB799AB2184B1A800BE0164B1B881A461346B5
:400940005B019A1AFB7913445B119AB2114B1A80104B1A880E4B1B889A4212D00D4B1A880B4B1A800B4B1B881A465A2303FB02F31B12DBB23133DBB27F2B28BF7F23DBB219
:4009800000E0002318460C37BD4680BC704700BFCE80FF1F7881FF1F80B483B000AF0346FB71194B1B88FF2B04D9FB799AB2174B1A800BE0154B1B881A4613465B019A1A0F
:4009C000FB7913445B119AB2104B1A800F4B1A880D4B1B889A4210D00C4B1A880A4B1A800A4B1B881A461346DB0013449B11DBB21F2BA8BF1F23DBB200E0202318460C3784
:400A0000BD4680BC704700BFD080FF1F7A81FF1F80B582B000AF786039603A680021786802F06FF800BF0837BD4680BD80B584B000AFF860B9607A607A68B968F86802F001
:400A400055F800BF1037BD4680BD00BF80B483B000AF0346FB71FEE780B582B000AF454B00221A60444B10221A70444B01221A70434B00221A70434B4FF420721A80424BE7
:400A800001221A70414B03221A70414B414A92B21A80414B47F608021A80404B00221A803F4B4FF480421A803E4B09221A703E4B0A221A703D4B12221A703D4B18221A706D
:400AC000BFF35F8F3B4B01221A70BFF35F8F00BF2C4B1B889BB2002BFAD100237B600DE07B68DA00344B13441946344A7B6852F823309BB20B807B6801337B607B684F2B65
:400B0000EED9BFF35F8F2B4B01221A70BFF35F8F00BF2B4B1B78DBB203F00103002BF8D100BF284B1B78DBB203F00103002BF8D100BF254B1B78DBB203F00103002BF8D1D4
:400B400000BF224B1B78DBB203F00103002BF8D100BF1F4B1B78DBB203F00103002BF8D106224FF090411B48FFF760FF00BF0837BD4680BD8081FF1F007600401070004047
:400B800019700040007800400278004003780040047800405000000006780040047600400676004029700040397000406970004079700040147000400C780040902B0000B8
:400BC00018700040287000403870004068700040787000401051014080B582B000AF404B04221A803F4B18221A703F4B43F697221A803E4B19221A7008223D493D48FFF74D
:400C000015FF3D4B02221A704FF0402308221A703A4B03221A703A4B3A4A1278D2B21A70394B1A221A80394B42F251221A800023FB7019237B6014E0FB785B00DAB2344BAE
:400C40001B78DBB203F00103DBB21343DBB203F00303FB704FF4F07001F0F2FE7B68013B7B607B68002B02D0FB78032BE4D17B68002B02D10320FFF7E9FE264B4FF480724E
:400C80001A80244B07221A70234B00221A70234B48221A701F4B00221A70214B02221A70204B04221A70204A1F4B1B78DBB243F00303DBB213701D4A1C4B1B78DBB243F053
:400CC0000303DBB213701A4A194B1B78DBB263F07F03DBB2137000BF0837BD4680BD00BF80400040824000408440004086400040DC1B004800410040004300400042004043
:400D0000A146004008010049224200402042004025420040044000400640004008400040014000400B400040A2430040A1430040A043004080B582B000AF274B1B78FB71BC
:400D4000264B1B78BB71264B1B787B71254AFB7903F00703DBB21370234AFB791B09DBB213701E4ABB7943F00303DBB213701C4A7B7943F00303DBB213701C4B18221A709B
:400D80001B4B40221A701B4B40221A701A4B40221A701A4B40221A70194B10221A70194B20221A70184B80221A70184B20221A70174B80221A700A2000F062FE084A7B7991
:400DC0001370064ABB791370124B44221A7000BF0837BD4680BD00BFCF010049F8460040F94600406E5800406F5800400D5100400159004003590040095900400B590040E2
:400E0000205B0040235B0040285B00402B5B0040585B00407658004080B500AF72B6314B60221A70FFF7D8FE2F4A2F4B1B78DBB243F00403DBB21370FFF70EFE04212B4858
:400E4000FFF7E6FD04222A492A48FFF7EFFD2A4A294B1B78DBB243F00203DBB21370274A264B1B78DBB243F00203DBB21370244A234B1B78DBB243F04003DBB21370214A25
:400E8000204B1B78DBB243F01003DBB2137008221D491E48FFF7CAFD0A221D491D48FFF7C5FD08221C491D48FFF7C0FD08221C491C48FFF7BBFD08221B491C48FFF7B6FD0C
:400EC0001B4A1B4B1B78DBB243F00803DBB21370FFF730FF0E220A491648FFF7A7FD00BF80BD00BF00480040E846004000760040E41B004808760040035001401350014075
:400F0000A0430040C2430040B01B004802510040B81B0048C0510040C41B0048F2510040CC1B004812510040D41B00482251004022430040B043004080B500AF01F0AAFD7D
:400F400003461B680C2B00D1FEE7FEE780B586B000AF224B7B61224B3B61204B7B6135E03B691B68FB603B695B68BB603B699B683B6000237B600CE0FB681A68BB681A6059
:400F8000BB680433BB60FB680433FB607B6804337B607A683B689A42EED13B69DB683B6000237B6008E0BB6800221A60BB680433BB607B6804337B607A683B689A42F2D1FD
:400FC0003B6910333B617B69013B7B617B69002BC6D101F065FDFFF7F1F9FEE701000000F82C000080B582B000AF194B194A1A60194A194B1B6843F40073136000237B60D3
:401000000FE07B68032B04D8144A7B6852F8233000E0134B13497A6841F822307B6801337B607B682F2BECD90F4B1B78DAB20F4B1A700F4B0B4A1A60FFF7EEFE00F006FBA2
:401040000C4B00221A6000BF0837BD4680BD00BF0CED00E00004FA0514ED00E000000000390F00000080FF1FBC760040C480FF1F08ED00E0C080FF1F90B585B002AF044661
:40108000084611461A462346FB710346BB710B46BB8013467B80104B00221A700E4B1878BA79F9790023019300230093002300F0CDFB094B1B787A88B988184600F06CFB45
:4010C000054B1B780221184600F034FB024B1B7818460C37BD4690BDD280FF1F80B500AF282000F0ABFC032000F0DEF9052000F0A5FC032000F0D8F90F2000F09FFC032008
:4011000000F0D2F9012000F099FC022000F0CCF9052000F093FC062000F0B4F80E2000F0B1F82C2000F0AEF8082000F0ABF8012000F0A8F80C2000F0A5F8032000F0A2F896
:40114000052000F07BFC00BF80BD00BF80B500AF0C2000F097F8024B01221A7000BF80BD8481FF1F80B500AF064B1B78002B04D1FFF7B4FF034B01221A70FFF7E7FF00BF79
:4011800080BD00BF8581FF1F80B582B000AF03460A46FB711346BB71FB79032B26D801A252F823F0B5110000C3110000D1110000DF110000BB79803BDBB2184600F062F83F
:4011C00015E0BB79403BDBB2184600F05BF80EE0BB796C3BDBB2184600F054F807E0BB792C3BDBB2184600F04DF800E000BF00BF0837BD4680BD00BF80B584B000AF7860FF
:401200000123FB737B681B78BB730BE0BB7B184600F01EF8FB7B7A6813441B78BB73FB7B0133FB73BB7B002BF0D100BF1037BD4680BD00BF80B582B000AF0346FB71FB7905
:40124000184600F005F800BF0837BD4680BD00BF80B584B000AF0346FB7100F02DF8FB791B09FB73FB7B184600F0E2F8FB7903F00F03FB73FB7B184600F0DAF800BF10371D
:40128000BD4680BD80B584B000AF0346FB7100F013F8FB791B09FB73FB7B184600F004F9FB7903F00F03FB73FB7B184600F0FCF800BF1037BD4680BD80B582B000AF4FF421
:4012C000CA737B60554A554B1B78DBB223F07F03DBB21370524B1B78DBB223F00F03FB704F4AFB7843F00F03DBB213704D4B1B78DBB223F00F03FB704A4AFB7813704A4BBD
:401300001B78DBB223F00F03FB70474AFB781370424A424B1B78DBB223F02003DBB213703E4A3E4B1B78DBB243F04003DBB21370002000F0A5FB394A384B1B78DBB243F037
:401340001003DBB21370012000F09AFB374B1B78FB70324A314B1B78DBB223F01003DBB21370002000F08CFBFB7803F00803FB702A4A2A4B1B78DBB243F01003DBB2137004
:40138000012000F07DFB254A244B1B78DBB223F01003DBB21370FB78002B02D10A2000F06FFB7B68013B7B60FB78002B02D07B68002BBDD1194A194B1B78DBB223F0400338
:4013C000DBB21370154A154B1B78DBB223F07F03DBB21370124A124B1B78DBB223F00F03DBB213700F4B1B78DBB223F00F03FB700C4AFB7843F00F03DBB213700A4B1B783B
:40140000DBB223F00F03FB70074AFB7843F00F03DBB2137000BF0837BD4680BD205100402251004023510040245100402151004080B582B000AF0346FB711A4A194B1B7893
:40144000DBB243F02003DBB21370164A154B1B78DBB223F04003DBB21370002000F010FB104A104B1B78DBB223F00F03DBB213700C490C4B1B78DAB2FB791343DBB243F0B9
:401480001003DBB20B70012000F0FAFA054A054B1B78DBB223F01003DBB2137000BF0837BD4680BD2051004080B582B000AF0346FB71154A144B1B78DBB223F06003DBB27C
:4014C0001370114A104B1B78DBB223F00F03DBB213700D490C4B1B78DAB2FB791343DBB243F01003DBB20B70012000F0C9FA064A054B1B78DBB223F01003DBB2137000BF64
:401500000837BD4680BD00BF2051004080B586B000AF78600A23FB75FB7D07F118021344002203F8102CFB7D013BFB751CE079681E4BA3FB0123DA0813469B0013445B003F
:40154000CA1AD3B23033BB75FB7D07F118021344BA7D03F8102C7B68144AA2FB0323DB087B60FB7D013BFB757B68092BDFD879680E4BA3FB0123DA0813469B0013445B00E8
:40158000CA1AD3B23033BB75FB7D07F118021344BA7D03F8102CFB7D07F1080213441846FFF72AFE00BF1837BD4680BDCDCCCCCC90B585B002AF0446084611461A46234631
:4015C000FB710346BB710B46BB8013467B80104B01221A700E4B1878BA79F9790023019300230093012300F031F9094B1B787A88B988184600F0D0F8054B1B780221184645
:4016000000F098F8024B1B7818460C37BD4690BDD380FF1F80B483B000AF0346FB71044AFB79137000BF0C37BD4680BC704700BF7865004080B400AF034B1B78DBB2184655
:40164000BD4680BC704700BF7865004080B483B000AF134B7F221A70124B80221A707F23FB710CE0FB79DB0003F1804303F5F043FA79013AD2B21A70FB79013BFB71FB79F9
:40168000002BEFD1FB79DB0003F1804303F5F04300221A7000BF0C37BD4680BC704700BFD580FF1FD480FF1F80B485B000AF03460A46FB711346BB710123FB60FB79172BEF
:4016C0002FD8BB79002B0ED0FB791A01184B1344FA791101164A0A441278D2B242F02002D2B21A700DE0FB791A01114B1344FA7911010F4A0A441278D2B222F02002D2B299
:401700001A70FB791A010A4B1344FA791101084A0A441278D2B242F00102D2B21A700023FB60FB6818461437BD4680BC704700BF1070004080B485B000AF03460A46FB7152
:401740001346BB710123FB60FB79172B1BD8FB791A01104B13441B78DBB223F00E03FB72FB791A010B4B1344BA795200D2B252B202F00E0251B297F90B200A4352B2D2B2EC
:401780001A700023FB60FB6818461437BD4680BC704700BF1070004080B485B000AF0346FB710B46BB8013467B800123FB60BB8841F6FF72934202D14FF40053BB807B880D
:4017C00041F6FF72934202D14FF400537B80FB79172B17D8FB79DB0003F1804303F5EC430433BB60BB68BA881A80FB79DB0003F1804303F5EC430633BB60BB687A881A80A5
:401800000023FB60FB6818461437BD4680BC704780B485B000AF03460A46FB711346BB710123FB60FB79172B07D8FB791A01064B1344BA795A720023FB60FB6818461437B2
:40184000BD4680BC704700BF1070004090B484B000AF0446084611461A462346FB710346BB710B467B7113463B710123FB60FB79172B34D8FB79DB0003F1804303F5EC4383
:40188000BA7902F07F02D1B27A79D201D2B20A43D2B21A70FB79DB0003F1804303F5EC433A7E1201D1B23A7902F00F02D2B20A43D2B25A70FB79DB0003F1804303F5EC43DD
:4018C0003A7F02F00F02D2B29A70FB79DB0003F1804303F5EC430022DA700023FB60FB6818461037BD4690BC704700BF80B582B000AFFF23FB7101F0C2F80346BB71104B9B
:401900001B78182B12D90F4B1B78FB710C4B1B78013BDAB20A4B1A70FB79DB0003F1804303F5F0431B78DAB2064B1A70BB79184601F0A9F8FB7918460837BD4680BD00BF9D
:40194000D480FF1FD580FF1F90B484B000AF0446084611461A462346FB710346BB800B46BB711346FB700123FB6097F90730002B23DBBB8823F47F6323F00F039BB2002B2A
:401980001BD1FB79DB0003F1804303F5F043BB60BB68BA881A80FB79DB0003F1804303F5F043BA799A70FB79DB0003F1804303F5F043FA78DA700023FB60FB68184610370F
:4019C000BD4690BC704700BF80B485B000AF0346FB710B46BB8013467B800123FB6097F90730002B17DBFB79DB0003F1804303F5F0430433BB60BB68BA881A80FB79DB0041
:401A000003F1804303F5F0430633BB60BB687A881A800023FB60FB6818461437BD4680BC704700BF80B483B000AF0346FB7101BE00BF0C37BD4680BC704700BF80B582B0CA
:401A400000AF786008E00C4B1B68184600F0F8FF7B68A3F500437B607B68B3F5004FF2D8064B1B687A6802FB03F3184600F0E8FF00BF0837BD4680BDE880FF1FE080FF1F7B
:401A800080B582B000AF0346FB80FB88054A127802FB03F3184600F0D3FF00BF0837BD4680BD00BFE480FF1F80B584B000AF03463960FB710F4B1B68FB60FB791F2B02D927
:401AC0000020FFF7AFFFFB7903F01F0310339B00FA6813441B68BB60FB7903F01F0310339B00FA6813443A681A60BB6818461037BD4680BD08ED00E080B582B000AF0346EC
:401B00000A46FB711346BB71BB79072B02D90020FFF788FFFB791F2B02D90020FFF782FFFB7903F01F0303F1604303F56443BA795201D2B21A7000BF0837BD4680BD00BF06
:401B400080B483B000AF0346FB71044AFB79137000BF0C37BD4680BC704700BF7364004080B582B000AF786000F03CF8786800F009F8012000F018F800F028F800BF083775
:401B8000BD4680BD80B485B000AF7860054B1B68FB60FB6840337A681A6000BF1437BD4680BC704708ED00E080B483B000AF0346FB71054AFB795B01DBB2137000BF0C37C4
:401BC000BD4680BC704700BF00E400E080B400AF034B01221A6000BFBD4680BC704700BF00E100E080B400AF034B01221A6000BFBD4680BC704700BF80E100E080B582B07F
:401C000000AF1B4B00221A701A4B01221A7000F036FF0346FB71184A174B1B78DBB243F01003DBB21370FB79184600F02CFF134B0F221A70124B08221A70124B04221A60A9
:401C400004210220FFF758FF0F490220FFF72CFF0E4B10221A700E4B00221A700D4B00221A700D4B00221A7000BF0837BD4680BD7264004084640040946400402764004094
:401C80003764004080E100E0E91C0000B481FF1FB881FF1FC481FF1FC381FF1F80B400AF054A054B1B78DBB243F00203DBB2137000BFBD4680BC70477264004080B500AFFB
:401CC000074B1B78002B04D1FFF798FF044B01221A70FFF7E3FF034B04221A6000BF80BD8681FF1F00E100E080B582B000AFA64B1B78FB71A54B1B78DBB203F04003DBB2F5
:401D0000002B00F0CD81FB7903F00103002B00F0A4819E4B1B78DBB2453B052B00F2998101A252F823F000BF411D0000871E00005320000053200000411D0000BD1F0000E8
:401D4000FB7923F02003FB71FB7903F00A03DBB2082B54D18D4B1B78DBB2452B42D18C4B1B78DBB2002B15D08A4A8B4B1B681B78DBB21370894B06221A70894BFF221A709D
:401D8000884B00221A70884B01221A707F4B46221A7062E1854B1B78DBB203F00203002B0ED0834B1B78DBB243F00A03DAB2804B1A70764B60221A707E4B04221A604CE1C2
:401DC0007D4A7D4B1B78DBB243F02003DBB21370724B52221A70724BFF221A70714B00221A703AE16D4B02221A706D4BFF221A706C4B00221A70654B4A221A702DE1FB79D4
:401E000003F00A03DBB20A2B39D1694B1B78DBB263F05F03DAB2664B1A70644B1B78DBB203F00203002B18D0584B1B78DBB203F00803002B01D0092300E00A23DAB25C4B83
:401E40001B78DBB21343DAB2594B1A704F4B60221A70584B04221A60FFE0574A564B1B78DBB243F02003DBB213704C4B52221A704B4BFF221A704B4B00221A70EDE000209D
:401E8000FFF7D0FDE9E0FB7903F00203002B4AD1454B1B78DAB23E4B1B78DBB29A421AD23C4A3D4B1B6840490978C9B20B441B78DBB21370394B06221A70394BFF221A7057
:401EC000384B00221A70384B1B78DBB20133DAB2354B1A70C1E0354B1B78DBB203F00203002B0ED0324B1B78DBB243F00A03DAB22F4B1A70254B60221A702E4B04221A6002
:401F0000ABE02D4A2C4B1B78DBB243F02003DBB21370224B52221A70214BFF221A70214B00221A7099E0214B1B78DBB203F00203002B0ED01E4B1B78DBB263F06503DAB232
:401F40001B4B1A70114B60221A701A4B04221A6083E0194A184B1B78DBB243F02003DBB213700E4B52221A700D4BFF221A700D4B00221A700E4B1B78DBB263F06F03DAB22D
:401F80000B4B1A7069E000BF64640040B481FF1FC181FF1F03640040C881FF1F726400401364004053640040C381FF1FC281FF1FB881FF1F80E100E084640040404B1B681B
:401FC000404A1278D2B213443F4A1278D2B21A703C4B1B78DBB20133DAB23A4B1A70394B1B78DAB2394B1B78DBB29A4209D2384B02221A70374BFF221A70374B00221A70D1
:402000002BE0364B1B78DBB203F00203002B0ED0334B1B78DBB243F00903DAB2304B1A70304B60221A70304B04221A6015E02F4A2E4B1B78DBB243F02003DBB21370244B07
:4020400012221A70234BFF221A70234B00221A7003E00020FFF7E6FC00BFFB7903F02003002B28D01F4B1B78DBB203F00803002B01D0012300E00223DAB2194B1B78DBB26B
:402080001343DAB2164B1A70184A184B1B78DBB223F02003DBB21370124B10221A700AE0104B1B78DBB203F01003DBB2002B02D10C4B10221A7000BF0837BD4680BD00BF09
:4020C000BC81FF1FC481FF1F03640040C081FF1F726400401364004053640040C281FF1FB881FF1FB481FF1F80E100E08464004080B485B000AF396011461A460346FB71C7
:402100000B46BB7113467B710223FB733B68002B5DD0324B1B78DBB2102B0CD1304B1B78DBB203F01003002B02D10023FB7314E00123FB7311E0294B1B78DBB2602B0CD1F7
:402140000023FB73274B04221A60274B1B78DBB223F00803DAB2244B1A70FB7B002B36D11E4B45221A70214B00221A70204ABB791370204A3B6813601F4A7B7913701A4B87
:402180001B78DBB223F00203DAB2174B1A701B4AFB795B00DBB213707B7903F00103002B09D0174B32221A70164BFF221A70164B00221A7008E0124B82221A70114BFF22F3
:4021C0001A70114B00221A70104B04221A60FB7B18461437BD4680BC704700BFB481FF1F6464004080E200E0B881FF1FC381FF1FC181FF1FC881FF1FC281FF1F0364004059
:4022000072640040136400405364004000E100E080B483B000AF0D4B04221A600C4B1B78FB710C4B1B78DBB203F04003DBB2002B03D0FB7943F00403FB71074B04221A6071
:40224000FB7918460C37BD4680BC704780E100E0B881FF1FB481FF1F00E100E080B483B000AF094B04221A60084B1B78FB71074B00221A70064B04221A60FB7918460C3747
:40228000BD4680BC704700BF80E100E0B881FF1F00E100E080B582B000AF00F0F0FB0346FB710C4A0B4B1B78DBB243F02003DBB21370FB79184600F0E6FB074A064B1B7860
:4022C000DBB243F00403DBB2137000BF0837BD4680BD00BF956500407665004080B400AF0E4A0E4B1B78DBB223F00703DBB213700A4B0A4A1278D2B21A70094A084B1B785A
:40230000DBB223F00703DBB21370054B044A1278D2B21A7000BFBD4680BC7047866500408765004080B500AF064B1B78002B04D1FFF7D4FF034B01221A70FFF7ABFF00BFB6
:4023400080BD00BF8781FF1F80B582B000AF00F096FB0346FB710C4A0B4B1B78DBB243F01003DBB21370FB79184600F08CFB074A064B1B78DBB243F00103DBB2137000BFBC
:402380000837BD4680BD00BF966500407665004080B582B000AF00F072FB0346FB710C4A0B4B1B78DBB243F01003DBB21370FB79184600F068FB074A064B1B78DBB243F025
:4023C0000203DBB2137000BF0837BD4680BD00BF976500407665004080B483B000AF0346FB71044AFB79137000BF0C37BD4680BC704700BF7664004080B500AF064B1B78CB
:40240000002B04D100F00AF8034B01221A7000F029F800BF80BD00BF8881FF1F80B500AF102000F071FA07210420FFF765FB0A490420FFF739FB094A084B1B78DBB243F011
:402440000603DBB21370082000F086F8044B00221A8000BF80BD00BF7526000009590040D081FF1F80B582B000AF00F008FB0346FB712E4A2D4B1B78DBB243F00203DBB2A8
:4024800013702B4A2A4B1B78DBB243F00203DBB21370284A274B1B78DBB243F00203DBB21370254A244B1B78DBB243F00203DBB21370224B1B78BB71BB7943F00203BB71F1
:4024C000BB7943F00103BB711C4ABB7913701C4B18221A701B4A1B4B1B78DBB243F04003DBB21370174A174B1B78DBB223F00303DBB21370144BC8221A70144B02221A70A0
:40250000134A134B1B78DBB243F00803DBB213700A20FFF7B5FA0F4B10221A60FB79184600F0B1FA00BF0837BD4680BDAB430040BB430040A1430040B14300400B5900408A
:402540000E5900400D59004008590040164600402F5B004080E200E080B584B000AF0346FB71FB790A2B07D00C2B02D0082B06D008E0C223FB730BE08223FB7308E04223E0
:40258000FB7305E0C223FB730020FFF74BFA00BF054AFB7B1370FB79184600F02BF800BF1037BD4680BD00BF0A59004080B400AF054A054B1B78DBB243F00103DBB213709D
:4025C00000BFBD4680BC70470859004080B400AF064B1B78DAB2064B1B881BB2DBB2D31ADBB25BB21846BD4680BC7047A25B0040CC81FF1F80B584B000AF0346FB71FB7920
:402600000A2B08D00C2B02D0082B08D00BE04FF48053FB600DE04FF48063FB6009E04FF48073FB6005E00023FB600020FFF7FAF900BF0C4B00221A80FB6842F2107202FBE1
:4026400003F303F6C413084A82FB0312D212DB17D31A064A1360064B00221A8000BF1037BD4680BDCE81FF1FAD8BDB68D481FF1FCC81FF1F80B400AF00BFBD4680BC704779
:4026800080B500AF064B1B78002B04D100F00AF8034B01221A7000F029F800BF80BD00BF8981FF1F80B500AF102000F047F907210320FFF721FA0A490320FFF7F5F9094A24
:4026C000084B1B78DBB243F00603DBB21370082000F086F8044B00221A8000BF80BD00BFFD28000001590040DC81FF1F80B582B000AF00F0C4F90346FB712E4A2D4B1B788A
:40270000DBB243F00103DBB213702B4A2A4B1B78DBB243F00103DBB21370284A274B1B78DBB243F00103DBB21370254A244B1B78DBB243F00103DBB21370224B1B78BB71B8
:40274000BB7943F00203BB71BB7943F00103BB711C4ABB7913701C4B18221A701B4A1B4B1B78DBB243F04003DBB21370174A174B1B78DBB223F00303DBB21370144BC8221C
:402780001A70144B02221A70134A134B1B78DBB243F00803DBB213700A20FFF771F90F4B08221A60FB79184600F06DF900BF0837BD4680BDAB430040BB430040A1430040DB
:4027C000B14300400359004006590040055900400059004014460040275B004080E200E080B584B000AF0346FB71FB790A2B07D00C2B02D0082B06D008E0C223FB730BE010
:402800008223FB7308E04223FB7305E0C223FB730020FFF707F900BF054AFB7B1370FB79184600F02BF800BF1037BD4680BD00BF0259004080B400AF054A054B1B78DBB24E
:4028400043F00103DBB2137000BFBD4680BC70470059004080B400AF064B1B78DAB2064B1B881BB2DBB2D31ADBB25BB21846BD4680BC7047A05B0040E081FF1F80B584B024
:4028800000AF0346FB71FB790A2B08D00C2B02D0082B08D00BE04FF48053FB600DE04FF48063FB6009E04FF48073FB6005E00023FB600020FFF7B6F800BF0C4B00221A80E2
:4028C000FB6842F2107202FB03F303F6C413084A82FB0312D212DB17D31A064A1360064B00221A8000BF1037BD4680BDDE81FF1FAD8BDB68D881FF1FE081FF1F80B400AF6E
:4029000000BFBD4680BC704780B483B000AF0346FB710949084B1B78DBB25AB297F9073023F007035BB213435BB2DBB20B7000BF0C37BD4680BC70470641004080B483B004
:4029400000AF0346FB710949084B1B78DBB25AB297F9073023F007035BB213435BB2DBB20B7000BF0C37BD4680BC70470241004080B400AF034B1B78DBB21846BD4680BC5D
:40298000704700BF6964004080B400AF034B1B78DBB21846BD4680BC704700BF6865004080B582B000AF786000F03CF8786800F009F8002000F018F800F028F800BF083712
:4029C000BD4680BD80B485B000AF7860054B1B68FB60FB6844337A681A6000BF1437BD4680BC704708ED00E080B483B000AF0346FB71054AFB795B01DBB2137000BF0C3772
:402A0000BD4680BC704700BF01E400E080B400AF034B02221A6000BFBD4680BC704700BF00E100E080B400AF034B02221A6000BFBD4680BC704700BF80E100E00000000094
:402A4000142816D902B4012114381049097811F0C001890904B40E4A515C04BC00BF00BF00BF8841FDD500BF00BF02BC704700BF00BF70F10400FCD570470B050709EFF324
:402A8000108072B6704780F310887047004800407A2A0000014B1868704700BF4C81FF1F0E4B70B51E460E4C0025E41AA410A54204D056F8253098470135F8E700F00AF934
:402AC000084B094C1E46E41AA4100025A54204D056F8253098470135F8E770BDE02C0000E02C0000E02C0000E82C000010B5431E0A44914204D011F8014B03F8014FF8E7A2
:402B000010BD03460244934202D003F8011BFAE7704700000000000044535020666565642074726F7567680031302F322F32303136205069436F000050313A20566F6C201E
:402B400075697467616E670050323A204C6576656C20696E67616E67000000004C65763A202020204850766F6C3A2020000000004C696E653A0000001E000C000E02001F9F
:402B8000021F046406640A00081210A01201000028000000300000003800000040000000480000004800000048000000480000008081FF1F8081FF1F8081FF1F8081FF1FCF
:402BC0008081FF1F8081FF1F8081FF1F8081FF1F8081FF1F0800004810000048180000482800004830070048700700482000004830000048B000004830010048B00100483A
:402C000030020048B002004830030048B003004830040048B004004830050048B005004830060048B006004890070048A0070048B007004830080048B0080048300900486E
:402C4000B0090048300A0048B00A0048300B0048B00B0048300C0048B00C0048300D0048B00D0048300E0048B00E0048300F0048B00F004830100048B01000483011004804
:402C8000B011004830120048B012004830130048B013004830140048B014004830150048B015004830160048B016004830170048B017004830180048B01800483019004844
:402CC000B0190048301A0048B01A0048301B004843000000F8B500BFF8BC08BC9E467047F5020000E50F0000F8B500BFF8BC08BC9E467047D1020000082D0000C880FF1FF2
:402D00008800000098000000000000002000E803E803FFFF807F000003000000802FA604B03001004E00000000005898000000000000000000000000000000000000000005
:402D4000000000000000000000000000D02C000000000000000000000000000000000000000000000000000000000000000000000000000000000000000000000000000057
:402D8000000000000000000000000000EC80FF1F00000000000000000000000000000000000000000000000000000000000000000000000000000000000000000000000089
:402DC00000000000000000000000000000000000000000000000000000000000000000000000000000000000000000000000000000000000000000000000000000000000D3
:402E00000000000000000000000000000000000000000000000000000000000000000000000000000000000000000000000000000000000000000000000000000000000092
:402E40000000000000000000000000000000000000000000000000000000000000000000000000000000000000000000000000000000000000000000000000000000000052
:402E80000000000000000000000000000000000000000000000000000000000000000000000000000000000000000000000000000000000000000000000000000000000012
:020000040003F7
:0200000480007A
:4000000006000000000000008000000000000000185A0000000000001316000000000000F50300000000000000000000000000210518780601040000080107000300004093
:40004000C03F070003220018220605003A1C042210320708012A00100101001EFF2200007F008000001F006008200000000001000000000000000000000000000000000020
:400080000000F60000000000040400040000000100000000000000000000000000000000000000000000000000000000000000000000010009000200000000000000000031
:4000C00000000000000000000000000000000000000004000000000000000000000000000800010004000200000000300000010026000000030B00D021FF7FFF42A07000C8
:400100000C000000000008000409040411900001000940093009000000000000000000000000000000000000000000000000000000000040100401210005142040258000D5
:400140004000801000B120021001020E040008803F0000000F2500000004080100B118083F300040000FC080020000200000000000000000000000000000000000000000BE
:400180000000000020000400040400040000000100000000000000000000000000000000000000000000000000000000000000000F0000000000010000401413034600A9A5
:4001C00010FF0B00032A0054020009001F80005600000B00010E00300833020C0100000100001F00000000FF000000000000000000000000000000000000000000000000B1
:4002000000000000000008000404000400900001000000000000000000000000000000000000000000000000000000000000000000000000000200000000001800000000FF
:40024000000000100104000008000609020000000000000000000009000400000900060000010304080204182800800000000001000000000000000000000000000000005D
:4002800000000000000008000A0900049990000100000000000000000000000000000000000000000000000000000000000000003B200041080F40001B00200F332008421B
:4002C0003B0F00000890700000000008048000001300280F0090000000000004000002080180780F0670001022A2080000001154520000000002500009FFFFFF42A070007D
:40030000081000000000000004040400000000010048404880488048000000000000000000000000000000000000000000000000000201410000B520FF00000BA901540611
:40034000CC00130B040000004D03921802000000A5004A0B00000403000102141A03600000000040FF3800070000C0A0000010000000000000000000000000000000000010
:4003800000000000000008000804000401900001000000000000000000000000000000000000000000000000000000000000000000460000000F00000045010A00410004A9
:4003C0000241000200010022054008020000000000000000000000100088000500000000040008E0021F01000008000000001104000000000000000000000000000000007E
:40040000000000000000000004040004010000010000000000000000000000000000000000000000000000000000000000000000000800010039000400200001003900040A
:40044000000000000039000400100001000200000000000000000000000000000000000000020007003A000080000000000040000000000000000000000000000000000029
:400480000000000000000000040A0000900000010000000000000000000000000000000000000000000000000000000000000000800040001080C01002FFC000FF0000803D
:4004C0000080BF04C000207F00803F010800C07F0480C00800804002C080012000800040FFFF0000000000000000000000000000230500000000E0BC38FFFFFF000000002D
:4005000004000000000002280A0A0A0A999900010000C0004001800030004010100040A800000000000000000000000000000000000D305200000105000060000000020042
:400540000053048800001000008160620000080060000005000000006005000005000A3F400230C0033C0C03002000000000010043050200010EC00009FFFFFF0220000542
:4005800004000700010000000909090999990001000040014001500140017010401000000000000000000000000000000000000000000000000100000000000200000000F1
:4005C000000000000000000000000000000000000000000000000004000000000000000000010004000200000000C000000000000000000000000000000000000000000030
:4006000000000000010000000904000A019000010000000000000000000000000000000000000000000000000000000000000000000D000000E2000012000102015D32A2DA
:40064000010006FF000113000040001D00000008003D13C200041BE00101040000920060070008FF20001000000002C00000400400000000000000000000000000000000AE
:400680000000000000000000040A000410000001000000000000000000000000000000000000000000000000000000000000000000000001090002080000000000010802F8
:4006C0000000000000000000000000000000000400000000000000000000040000000000020208080401010400000000000040000000000000000000000000000000000094
:400700000000000000000800040400041190000100000000000000000000000000000000000000000000000000000000000000000000000000000000000000000000000003
:4007400000000000000000000000000000000000000000040000000F000000000000000000000000000000080000000000000000000000000000000000000000000000005E
:4007800000000000003F00000000000000000000030114000000000000000301030100000301140000000000030101010301000000000000000000000000000000000000B8
:4007C00000000000000000000000000000000000000000000000000000000000000000000000000000000000000000000000000000000000000000000000000000000000F9
:4008000000000000000000000000000000000000000000000000000000000000000000000100000000010000000000000000000001000000000000000000000001000000B4
:4008400000000000010000000001000000000000000000000000000000000000000000500000000000810000000000000000000000000000000000000000000000000000A5
:4008800000000000000000000000000001000400000000000800000000000800020000000000000000000000000000000000000000000000000000000000008800800020F9
:4008C00000000000000000000000000000000010000000000000000000000000000000000000000000000000000000000000000000000000000000000000000000000000E8
:400900000000000000000000000000000000000000000000000000000000000000000000000000000800000000000000000000000000000000000000080000000000001097
:4009400000000000010000080000000000000000000000000000000000000000000000000000000000000000000000000000000000000F000000010000000000000000005E
:400980000000000000000000000000000000040000000800040000000000000000000000000000000000000000000000000000000000000000000004000000000000000023
:4009C00000000000010000000000000000000000000000000000000000000000000800000000000000000000000000000000000000000000000000000000000000000000EE
:400A000000000000000000000000000000000000000000000000000000000000000000000000000000000000000000000000000000000000000800000000000000000000AE
:400A40000000000000000000200000000000000000000000000000000000000000000000000000000000000000000000000000000000000000000000000000000000000056
:400A80000000000000000000000000000000000000000000000000000000000000000000000000000000000000000000000000000000000000000000000000000000000036
:400AC00000000000210000000000000000000000000000000000000000000000000000000000000000000000000000000000000004000000000008000000000000000000C9
:400B000000000000000000000000000000000000000000000000000000000000000000000000000000000000000000000000000000000000000000000000000000000000B5
:400B40000000000000000000000000000000000000000000000000000000000000000000000000000000000000000000000000000000000000000000000000000000000075
:400B80000000000000000000000000000100000000000000000000000000000000000000000000000000000000000000000000000000000000000000000000000000000034
:400BC00000000000200000000000000000000000000000000000000000000000000000001000000000000000000000000000000000000000000000000000000000000000C5
:400C000000000000000001000000000000000000000000000000000000000400000000000000000000000000000000000000000000000000000000000000000000000000AF
:400C40000000000010000000000000000000000000000000000000000000000000000000000000000000000000000000000000000000000000000000000000000000000064
:400C80000000000000000000000000000000000000000000000000000000000000000000000000000000000000000000000000000000000000000000000000001000000024
:400CC00000000000000000000000000000000000000000000000000000000000000000000000000000000000000000000000000000000000040000000000000000000000F0
:400D000000000000000000000000000000000000000000000000020000000000000000000000000000000000000000000000000000000000000000000000000000000000B1
:400D400000000000000000000000000000000000000000000000000000000000041000000080000000200000000000000000000000000000000000000000000000000000BF
:400D800000000000000000000000000000000000000000001400000000000800C00002000000000000000000000000000000000000000000022000120000000008004900D0
:400DC00000000000000000250100000000004002103900440000004000000000005009002008004000000461001100442088000020002000002800000000000000000040F3
:400E000000000000000021040000000000000000000000000000002000000000295901100000000000200821000010200000002000400000000000000000000001010000FF
:400E4000000000201062010000010006202001001040140008040006200000000040000000200000040000000000000000000000F000F000700000000000F000FE007F00E0
:400E800060001000000000004000000000004200000000000400400000000000080002000000000000000000000000000000000000000022009000000000000000005000F0
:400EC000000004000008480000402022001050800041440800044000000000000A000210008000000800A20004820000010008500000000000000000000000000000000046
:400F000000000000000000000420004000108A000480040000000000000000000080000000000000000000000000000000001000000000080004000000400000000000400F
:400F4000010000700000880008004A00004000000A00A70000040080002018000004000000005200000000100000000000000000C5003000720000000000F000F800FB00C9
:400F8000000000000000FE000E00000000004000000000000000000000000000A00040000000000000000000000000000000000000000000160001000000000001001208D3
:400FC0000000000000620000004000002480520000200110000122290000080008000102000000000000200108002000000A00000000000000800029000004200000120097
:4010000000000000000000200200224020004000000000000000000000000000019408040000000000000000000018000000000400000800000000100000000000001000E7
:401040000800000800140010010128420220002000001000000000200290A4100420000040040000000020000000000000000000F000F000D00000000000B200A000C600C8
:40108000F000100000003C00000000000000260008004400000000000000080001000400000000000000000000000000000000001000000082001800000088000822000217
:4010C0000000000028000201101102000000022000141000086020100000102002200210022A00000000220080200A6000A80001000000000000000000000000000000005F
:40110000000000000000000000590000208000100000000000000001000000000000000000000000000000000000000000000100000000000000000000900001040000000F
:4011400083000010000000000808020000000000081A840100400080000000000000000000000000000000800000000000000000F200FA00F00000000000F600A700FF006B
:401180000000000000001F001000000000001000000010008000080000004000000008000000000000000000000000000000000010812000000000000000118000002600A8
:4011C000020080000040000004041001000026048A0901000000005A0089800800200020009801000000002A028908900014000004000000000000000108000000000000A4
:401200000000100000000000000000002000004000000000090000000000000000400000000000000000000000000000080000040800000000400000000000001000400849
:401240000A8801401002400020018000065430000A000000042804010010000020100001000000000800000000000000000000000F00ED008900000000006F00EF006F0048
:401280000400080000003000300000000000600000000000C0000800000000000000080000000000000000000000000000000000401000000002000000408001000000007F
:4012C000030000100000000008080200000000000808040000000000000002000000000000000010080000000000000000000000000000000000000000000000000000009B
:4013000000000000000000000000000000000000800000000000200040000000800000000000000000000000000000000000000010880000022001108008800800012A0047
:4013400000801802005080040001810000001004021491800040000002180000020800040400910082000D021090000610808000800100000000000000000000000000007D
:401380000000000000000000000400A10020500008000082008000020000000000000000000000000000000000000000000000000040100000410404010010200108000039
:4013C0000A41084010820000000001140240A0000A10000004201440000080000000000000800000004800000000000000000000F700FF00FF00000000007E00DF003F0066
:401400000000000000001F001D000000000000000300000000000000000000000400000000000000000000000000000000000000010804000000000000080000090000004B
:40144000000000000000000000000000000000000000000000000000000000000000000000000000000000000000000000000000000000000000000000000000000000006C
:4014800000000000000000000000000000000000C000000010000000000020000000000000000000000000000000000000000000000000A01208090000000000004129000F
:4014C0000000400042008014000000A5000040040000100002108000000000004080080400000000020094000000000000204104002020000000000004000004000000003C
:40150000020201000000000000400000000000000000400000000000080188000400001000000000008A000400000004000000000002500000000000000000010002000496
:40154000000000400000000000000000000000000000000000000040000000400000000000000040000000000000000000000000FC00F000F80000000000F000F000F000B7
:401580000600040000000800080000000000040001000000040000000000000000000000000000000000000000000000000000000000000000000000000000000000000008
:4015C00000000000000000000000000000000000000000000000000000000000000000000000000000000000000000000000000000000000000000000000000000000000EB
:40160000000000000000000000000000000000000000000000004000000000000000000000000000000000000000000000000000000000000000000000000000000000006A
:40164000000000000000000000000000000000000000000000000000000000000000000000000000000000000000000000000000000000000000000000000000000000006A
:4016800000000000000000000000000000000000000000000000400000000000000000000000000000000000000000000000000000000000000000000000000000000000EA
:4016C00000080000000800000000000000000000000000000000000000000000000000000000000000000000000000000000000000000000000000000000000000000000DA
:401700000000000000000000000000000000000000000000000000000000000000000000000020000000000000000000000000000000000000000000000000000000200069
:4017400000000000000800000000000000000000000000000004000000000001000000400000000000000000000000000000000000000000300000000000000000000000EC
:401780000000000000000000000000008000000000000000000000000000000000006000000000000000000000000000000000000000000000000000000000000000000049
:4017C00000000000000000000000000000000000000000000000000000000000000000000000000000000000000000000000000000000000000000000000000000000000E9
:4018000000000040000000082000000000001000000000000000000000000000000000000000000000000000000000000000000000000000000000000000000040000000F0
:4018400000001080400800422000000000000000000000080004000000000040000000000000000000000000000000000000000000000000000000000000000000000000E2
:4018800000000000E00020000000000000000000000000000000000000002000000000000000000000000000000000000000000000001000000000000004000000040000F0
:4018C000000000804000004220000000000000000000000800000040200000000000000000000000000000000000000000000000000000000000000000000000000000005E
:4019000000000000000000000000000000000000000080000000000000008000000000000000000000000000000000000000000000000000000000000000000000000000A7
:401940000000000000000000000000000000000000000000000000000000000000000000000000000000000000000000000000000000000000000000000000000000000067
:401980002000000000000040000000000000000000000000000000000000000000000000000000000000000000000000000000000000000020000040000000000000000067
:4019C000000000004000004200000000000000000000000800000000000000000000000000000000000000000000000000000000000000000000000000000000000000005D
:401A0000000000006000000000000000000000000000100000001000000000000000000000000000000000000000000000000000000000080000000000000000000000001E
:401A400000000000400000420000000000000000000000000000000000000002000000000000000000000000000000000000000000000000000000000000000000000000E2
:401A80000000000000000000000000000000000000000000000080000000200000000000000000000000000000000000000000000000000000000000000000000000000086
:401AC000000000000000000000000000000000000000000000000000000000000000000000000002000008000000004240000000000000000000000000000000000000005A
:401B0000000000000000000000000000000000000000000000000000000000000000000000000000000000000000000000000000000000000000000000000000000008009D
:401B4000000000000000000000000000000000000000000000000000000000000000000000000000000000000000000000000000000000000000000000000000C000700035
:401B80000000000000000000000000000000000000000000000000000000000000000000000000000000000000000000000000000000000000001800030020585B005B00DC
:401BC00000000000201F1F001F00000000FF0B000000000000FFFF00800000003000180130001801000100000000000000000000000000000000000000000000000000004D
:401C000000000000000000000000000000000000000000000000000000000000000000000000000000000000000000000000000000000000000000000000000000000000A4
:401C40000000000000000000000000000000000000000000000000000000000000000000000000000000000000000000000000000000000000000000000000000000000064
:401C80000000000000000000000000000000000000000000000000000000000000000000000000000000000000000000000000000000000000000000000000000000000024
:401CC00000000000000000000000000000000000000000000000000000000000000000000000000000000000000000000000000000000000000000000000000000000000E4
:0200000490006A
:040000000800C0052F
:0200000490105A
:04000000BC90ACAF55
:0200000490303A
:02000000ABB79C
:0200000490402A
:4000000000000000000000000000000000000000000000000000000000000000000000000000000000000000000000000000000000000000000000000000000000000000C0
:400040000000000000000000000000000000000000000000000000000000000000000000000000000000000000000000000000000000000000000000000000000000000080
:400080000000000000000000000000000000000000000000000000000000000000000000000000000000000000000000000000000000000000000000000000000000000040
:4000C0000000000000000000000000000000000000000000000000000000000000000000000000000000000000000000000000000000000000000000000000000000000000
:0200000490501A
:0C00000000012E16106900012E27BC2004
:00000001FF